:020000040800F2
:10000000D0630020ED0100089D910008897100086F
:1000100099910008B1140008A1D100080000000067
:1000200000000000000000000000000081950008B2
:10003000811C000800000000A19100089DA100089B
:10004000070200080702000807020008070200086C
:10005000070200080702000807020008070200085C
:10006000070200080702000807020008391C000800
:10007000451C0008511C00085D1C0008691C000894
:10008000070200080702000807020008070200082C
:1000900009C6000807020008070200080702000856
:1000A0000702000825A2000807020008070200084E
:1000B00055A200080702000807020008997100080D
:1000C0008D710008070200080702000807020008F7
:1000D0000702000835A40008F9A50008BDA700081C
:1000E00007020008070200080702000807020008CC
:1000F00007020008070200080702000807020008BC
:1001000007020008070200080702000807020008AB
:10011000070200080702000807020008070200089B
:10012000070200080702000807020008070200088B
:10013000070200080702000807020008070200087B
:10014000070200080702000807020008000000007C
:10015000000000000000000000000000000000009F
:10016000000000000000000000000000070200087E
:10017000070200080702000807020008070200083B
:10018000070200080702000807020008070200082B
:10019000070200080000000007020008070200082C
:1001A000070200080702000807020008070200080B
:1001B00007020008070200080702000807020008FB
:1001C000070200080702000807020008751C000863
:1001D0000702000807020008DFF80CD000F066FBF9
:1001E0000048004749EE0008D063002006488047D9
:1001F00006480047FEE7FEE7FEE7FEE7FEE7FEE70C
:10020000FEE7FEE7FEE7FEE711A20008D9010008BD
:1002100040EA01039B0703D009E008C9121F08C088
:10022000042AFAD203E011F8013B00F8013B521E08
:10023000F9D27047D2B201E000F8012B491EFBD27F
:1002400070470022F6E710B513460A4604461946E1
:10025000FFF7F0FF204610BD30B5044600200346EE
:1002600000E05B1C934203D2E05CCD5C401BF8D005
:1002700030BD2DE9FE4F804681EA0300C00F0C46D9
:10028000009021F0004123F00045B8EB0200A941A5
:1002900005D24046214690461C460B46024623F0B6
:1002A0000040104347D0270DC7F30A00C3F30A519B
:1002B0000290401A019040286BDAC3F3130040F417
:1002C000801B0098924620B10023D2EB030A63EB17
:1002D0000B0B01985946C0F14002504600F0D8F986
:1002E00006460D4650465946019A00F0F0F910EBCB
:1002F00008006141002487EA115284EAE7731A4337
:1003000040D0009A62B3019A012A4FEA075215DCE5
:10031000001B61EB02014FF0004202EA0752CDE9F7
:100320000042001C41F5801132462B4600F027FAAE
:1003300003B0BDE8F08F40462146F9E7001B61EBB2
:100340000201001C41F5801300185B412018A2F542
:10035000001747EB030140EAD570B6196D4111E073
:100360006D084FEA360645EAC0754FEA0752001B92
:1003700061EB0201001C41F5801149084FEA300091
:100380000019514132462B4603B0BDE8F04F00F052
:10039000E7B90098012240000023D0EB020263EB92
:1003A000E073009821464FEAE074B8EB000061EB7F
:1003B0000401E9E783F000435BE781F0004158E77F
:1003C0002DE9FE4F81EA030404F0004421F00041CE
:1003D00000944FF0000B23F0004350EA01045ED07C
:1003E00052EA03045BD0C3F30A54C1F30A552C4408
:1003F000A4F2F3340194A0FB0254C1F3130141F4BD
:100400008011C3F3130343F4801301FB024400FB88
:10041000034E840A970A44EA815447EA8357A4FBAF
:10042000076802958D0A05FB07854FEA932C04FBAC
:100430000C542705029D4FEA065847EA1637B5EBDC
:1004400008056EEB070C870E920E47EA811742EA09
:100450008312A7FB0201B6EB0B0164EB00042B0D2A
:1004600043EA0C335E1844EB1C50DA465146E7FB76
:100470000201C5F313044FEA0B3343EA14534FEA66
:100480000432019C43EA0603A4F10C040294009C8C
:10049000CDE900B400F073F903B0BDE8F08F00209F
:1004A0000146F9E72DE9F04D81EA030404F0004B21
:1004B00021F0004514464FF0000A23F0004150EAB5
:1004C000050220D054EA01021DD0C5F30A570246A6
:1004D000C5F31303C1F31300C1F30A5640F48015AA
:1004E00043F48013A7EB0608101BD64608F2FD382C
:1004F00073EB050002D308F1010801E092185B419B
:10050000B8F1000F03DA00200146BDE8F08D0020AD
:100510004FF48011064684460EE0171B73EB050767
:1005200005D3121B63EB050306434CEA010C490893
:100530004FEA300092185B4150EA0107EDD152EAD0
:10054000030012D082EA040083EA0501084305D0C3
:10055000101BAB4106D20122002306E000224FF01F
:10056000004302E06FF0010253101AEB06004CEB5F
:10057000085110EB0A0041EB0B01BDE8F04D00F013
:10058000EFB80EB5C10F80EAE0700844CA07002139
:1005900040F233438DE80E000A460B4600F0EFF8B8
:1005A00003B000BD00F0004230F000400AD0C10DA1
:1005B00001F56071C0F3160042EA0151C20840071C
:1005C0001143704700200146704701F0004330B4EA
:1005D00021F0004150EA010206D00A0DA2F5607236
:1005E000C1F31301002A02DC30BC00207047440F25
:1005F00044EAC104C100E01830BC00EBC25000F076
:1006000078B830B50B46014600202022012409E0CD
:1006100021FA02F59D4205D303FA02F5491B04FABB
:1006200002F52844151EA2F10102F1DC30BD2DE9CE
:10063000F05F0546002092469B4688460646814666
:1006400040241BE0284641464746224600F02FF84A
:1006500053465A46C01A914110D3114618462246B5
:1006600000F016F82D1A67EB01084F4622460120CC
:10067000002100F00DF817EB00094E41201EA4F1F7
:100680000104DFDC484631462A464346BDE8F09F78
:10069000202A04DB203A00FA02F100207047914042
:1006A000C2F1200320FA03F3194390407047202A37
:1006B00004DB203A21FA02F00021704721FA02F30C
:1006C000D040C2F120029140084319467047202AC9
:1006D00006DBCB17203A41FA02F043EAE07306E06A
:1006E00041FA02F3D040C2F120029140084319467A
:1006F00070470029A8BF7047401C490008BF20F080
:100700000100704710B4B0FA80FC00FA0CF050EA17
:10071000010404BF10BC704749B1CCF1200421FA98
:1007200004F411FA0CF118BF012121430843A3EB93
:100730000C01CB1D4FEA00614FEA102042BF0020A0
:1007400010BC704700EBC35010440029A4BF10BC7C
:100750007047401C490008BF20F0010010BC7047E2
:1007600010B5141E73F1000408DA401C41F10001B9
:1007700092185B411A4301D120F0010010BD2DE910
:10078000F04D92469B4611B1B1FA81F202E0B0FA07
:1007900080F220329046FFF77BFF04460F4640EA86
:1007A0000A0041EA0B0153465A46084313D011464A
:1007B00053EA010019D0C8F140025046FFF777FF15
:1007C00005460E46504659464246FFF761FF08432C
:1007D00005D0012004E020463946BDE8F08D002018
:1007E000054346EAE0762C4337430A986305E40A5A
:1007F000A0EB08000022FD0A44EA47540A3002D563
:1008000000200146E9E7010510196941DDE90845C5
:1008100000196941BDE8F04DA2E7C1F30A52C1F3E6
:10082000130140F2FF3341F480119A4202DA0020B2
:100830000146704740F233439A42A2F2334202DC4F
:100840005242FFF734BFFFF723BF000030B5041E4C
:1008500071F1000404DB4FF00044404264EB0101FD
:10086000141E73F1000405DB1C464FF00043524296
:1008700063EB04038B4208BF824230BD30B5041ED7
:1008800071F1000404DB4FF00044404264EB0101CD
:10089000141E73F1000405DB1C464FF00043524266
:1008A00063EB0403994208BF904230BD064C074DEC
:1008B00006E0E06840F0010394E807009847103430
:1008C000AC42F6D3FFF78CFC681D0108881D0108B7
:1008D00070B58C1810F8015B15F0070301D110F802
:1008E000013B2A1106D110F8012B03E010F8016B2F
:1008F00001F8016B5B1EF9D12B0705D40023521EB2
:100900000DD401F8013BFAE710F8013BCB1A921C19
:1009100003E013F8015B01F8015B521EF9D5A14217
:10092000D8D3002070BD00000146806AC36DC26D3F
:1009300013F0500F08D0D20648BF02F0E7B8406D60
:10094000426B0846104700BF42F40071C165016860
:100950000B68CA681B0703D4910707D501F01EBDB9
:1009600012F4406FFAD1C9688904F7D4C16D21F43B
:100970008071C165C16DC90448BF01F00FBDC16D73
:1009800041F00101C16501F009BD0000806AC16D3F
:1009900041F04001C165016E41F00401016602F0C1
:1009A000B5B80000806A02F0AFB80000B0B50168C9
:1009B00004468A688868C0074FF0000031D012F002
:1009C000020218BFB0BD886800F00D0001281FD1D9
:1009D00088684FF6C072C7F6FF7210400230886018
:1009E0000320086003F08EF821688968C90704BFF6
:1009F0000020B0BD054602E08068C00712D003F0B9
:100A000081F8411B20680329F6D38168C907F3D018
:100A1000E06D40F01000E065206E40F001002066BF
:100A20000120B0BD0020B0BD70B582B004460020EA
:100A3000019021688A68D20711D14FF6C076C7F6B7
:100A4000FF76886806F17F0210420BD0E06D40F01F
:100A50001000E065206E40F001002066012002B029
:100A600070BD00BF88684FF4C162304040F00100A3
:100A7000886040F20010C5F20000814208BF4FF4C8
:100A80000272B1F1A04F08BF4FF402721058000279
:100A900022D403F037F821680A68D20718D1054636
:100AA00003E000BF0868C00712D18868C00704D1FE
:100AB0008868304040F00100886003F023F8401B54
:100AC00021680328EED30868C007EBD1BEE700BF5A
:100AD000002002B070BD00BF40F2CC00C2F20000A6
:100AE000006842F663518009C0F23E51A0FB01014B
:100AF000880900EB40000C2101EB80000190019877
:100B00000028C6D001980138019001980028C0D073
:100B100001980138019001980028BAD00198013855
:100B2000019001980028B4D00198013801900198F3
:100B30000028E7D1ADE7000080B540F25C40C2F28A
:100B40000000C18E40F25822C2F2000200F1380EBD
:100B50009180D0F832109EE80850406C1160C2F8C5
:100B60000630C2F80EC0C2F80AE0C2F8120000F067
:100B7000C9FE40F68530C0F60000BDE880400CF0AC
:100B8000ABBD000080B540F2AC60C2F20000322183
:100B90000EF0C8F9002808BF80BD0CF003FBBDE8CB
:100BA00080400CF04DBB0000F0B581B047F2E0573B
:100BB0004FF60006C1F6FF77C0F2FF7606F0C4F9E3
:100BC0000EF04AFD00F04AFC00F0FCFB00F0F8FCDF
:100BD00000F0A0FD40F20C05C2F20005287800F0FC
:100BE000BDFD42F20844C2F20004204600F0A8FC19
:100BF000687800F0B3FD04F1080000F0A1FCA878CB
:100C000000F0ACFD04F1100000F09AFCE87800F070
:100C1000A5FD04F1180000F093FC287900F09EFD7A
:100C200004F1200000F08CFC687900F097FD04F1DD
:100C3000280000F085FC002000F090FD00F02EFE62
:100C400040F25045C2F2000505F10C0441F61C517A
:100C5000C0F6010120464C22FFF7DAFA38884FF639
:100C6000FF71884208D038684FF60041C0F2FF316A
:100C700001EA8020304401E006F50020D0E90012AE
:100C800045F2AA53C5F2AA535A405940114317D10D
:100C900000F10807B0F820C08CCFD0E90561C06929
:100CA000C5F83E20C5F84230C5F84670C5F84A6020
:100CB000C5F84E10C5F85200A5F856C00DE000BFAB
:100CC00041F6D741C0F6010168200EF0EDFC41F677
:100CD0001C50C0F6010008F0BDFC204608F032FDB3
:100CE00000200DF04BFBE98F09BA090C8182B5F8A1
:100CF000401009BA090CC182B5F8421009BA090CB2
:100D00000183B5F8441009BA090C4183B5F84610BF
:100D100009BA090C8183B5F8481009BA090CC183D6
:100D2000B5F84A1009BA090C0184B5F84C1009BA93
:100D3000090C4184B5F84E1009BA090C8184B5F844
:100D4000501009BA090CC184B5F8521009BA090C3F
:100D50000185B5F854104185FFF7EEFE00F00AFB5F
:100D600008F09EFD40F6ED50C0F600000CF0B4FC1B
:100D700041F68924C0F601042046402100F082FF9C
:100D80000A2007F003FE04F14000402100F07AFF42
:100D90000A2007F0FBFD04F18000402100F072FF03
:100DA0000A2007F0F3FD04F1C000402100F06AFFC3
:100DB0000A2007F0EBFD04F58070402100F062FF8F
:100DC0000A2007F0E3FD04F5A070402100F05AFF6F
:100DD0000A2007F0DBFD04F5C070402100F052FF4F
:100DE0000A2001B0BDE8F04007F0D0BD2DE9F04F7A
:100DF00081B02DED068B8CB040F25049C2F2000953
:100E0000484664210EF08EF8002800F0BC8099F866
:100E10003400002872D0D9F80C00FFF7C3FB41EC76
:100E2000100B41F6D142C0F60102002006218DEDE3
:100E3000000B00F001FC99F83500002868D0D9F8C3
:100E40001000FFF7AFFB41EC100B41F6D142C0F6AA
:100E50000102062006218DED000B00F0EDFB99F854
:100E6000360000285DD0D9F81400FFF79BFB41EC59
:100E7000100B41F6D142C0F601020C2006218DED87
:100E8000000B00F0D9FB99F83700002852D0D9F8B0
:100E90001800FFF787FB41EC100B41F6D142C0F67A
:100EA0000102122006218DED000B00F0C5FB99F820
:100EB0003800002847D0D9F81C00FFF773FB41EC3D
:100EC000100B41F6D142C0F60102182006218DED2B
:100ED000000B00F0B1FB99F83900E8B3D9F8200015
:100EE000FFF760FB41EC100B41F6D142C0F6010266
:100EF0001E2006218DED000B31E000BF0FF2D43231
:100F00000020062100F098FB99F83500002896D1C2
:100F1000F2A20620062100F08FFB99F83600002887
:100F2000A1D1F0A20C20062100F086FB99F8370031
:100F30000028ACD1EDA21220062100F07DFB99F82B
:100F400038000028B7D1EBA21820062100F074FB6E
:100F500099F839000028C1D1E8A21E20062100F02E
:100F60006BFB99F8450099F8443099F8461099F8C8
:100F70004720B9F854708DE80700E2A224201B2115
:100F8000039700F059FB09F1040001210DF0CAFF9D
:100F900018B10120022100F03BFA09F108004FF4DA
:100FA000FA710DF0BFFF002800F08D8100200024B1
:100FB00000F0D4FB0BA80B9400F01AFC80B10B9846
:100FC000FFF7F0FA0B4641F6C1410246C0F60101B7
:100FD00066200EF069FB0B98C9F82000012004E0A0
:100FE000CDA168200EF060FB002041F6534189F846
:100FF0003900C0F6010166200EF056FB41F61C4197
:10100000C0F6010166200EF04FFB41F6B74899F893
:101010003400C0F6010843F6980A41F6B34B464641
:10102000C2F2000AC0F6010B002808BF5E46DAF8DB
:101030005400DAF80070DAF81850DAF82C40FFF7AC
:10104000B1FA41EC180B2846FFF7ACFA41EC190B4A
:101050002046FFF7A7FA41EC1A0B3846FFF7A2FA31
:1010600041EC100B41F66311C0F6010166203246D7
:101070008DEC068B8DED060B0EF016FB99F8350006
:101080004646002808BF5E46DAF85800DAF8044001
:10109000DAF81C50DAF83070FFF784FA41EC180BDC
:1010A0002846FFF77FFA41EC190B3846FFF77AFA2A
:1010B00041EC1A0B2046FFF775FA41EC100B41F694
:1010C0009A11C0F60101662032468DEC068B8DED3B
:1010D000060B0EF0E9FA99F836004646002808BFDC
:1010E0005E46DAF85C00DAF80840DAF82050DAF800
:1010F0003470FFF757FA41EC180B2846FFF752FA05
:1011000041EC190B3846FFF74DFA41EC1A0B20461B
:10111000FFF748FA41EC100B41F6D111C0F601017E
:10112000662032468DEC068B8DED060B0EF0BCFA78
:1011300099F837004646002808BF5E46DAF8600096
:10114000DAF80C40DAF82450DAF83870FFF72AFAA7
:1011500041EC180B2846FFF725FA41EC190B3846ED
:10116000FFF720FA41EC1A0B2046FFF71BFA41EC7F
:10117000100B41F60821C0F60101662032468DECC5
:10118000068B8DED060B0EF08FFA99F83800464667
:10119000002808BF5E46DAF86400DAF81040DAF892
:1011A0002850DAF83C70FFF7FDF941EC180B28469F
:1011B000FFF7F8F941EC190B3846FFF7F3F941EC6A
:1011C0001A0B2046FFF7EEF941EC100B41F63F21D8
:1011D000C0F60101662032468DEC068B8DED060BC4
:1011E0000EF062FA99F83900002808BFD846DAF8FC
:1011F0006800FFF7D7F941EC100B41F67621C0F6F5
:101200000101662042468DED000B0EF04DFADAF832
:101210001400FFF7C7F902460B4645A166200EF001
:1012200043FA99F8460099F8471099F8442099F83C
:101230004530B9F85470CDE9000141F69A41C0F645
:101240000101662002970EF02FFA99F8400099F8F4
:10125000411099F83E2099F83F3099F8427099F87A
:1012600043608DE8830041F67741C0F601016620B6
:1012700003960EF019FA99F8520099F8531099F85C
:10128000482099F8493099F84A8099F84BA099F884
:101290004C7099F84D6099F84E5099F84F4099F874
:1012A00050C099F851E0CDE9080125A16620CDE9AB
:1012B000008ACDE90276CDE90454CDF818C0CDF806
:1012C0001CE00EF0F1F90CB0BDEC068B01B0BDE8EE
:1012D000F08F00BF205431204E43000020543220B4
:1012E0004E430000205433204E430000205434204D
:1012F0004E430000205435204E430000204431204E
:101300004E43000025642E25642E25642E25643A64
:10131000256420202020000054656D706572617482
:101320007572652072656164206661696C65640030
:101330005245463A20252E35662056090000000009
:1013400047573A2025642E25642E25642E256409EE
:101350004D41534B3A2025642E25642E25642E25BD
:101360006409444E533A2025642E25642E25642EAC
:101370002564000080B582B04FF0000C00200121F0
:1013800000224FF4E133CDF800C00DF001F80CF06D
:10139000F5FD41F2A530C0F6000002B0BDE8804086
:1013A0000CF09AB980B540F2B060C2F200000121A1
:1013B0000DF0B8FD002808BF80BDBDE880400DF0ED
:1013C0003BB8000080B586B040F200400021C4F672
:1013D000000004220591826200920122CDE90121E0
:1013E000CDE90311694606F0FDFC06B080BD0000A2
:1013F00040F22840C4F6000004210160704700005C
:1014000040F21840C4F6000004210160704700005B
:10141000012818BF704740F2A840C2F200000378CC
:10142000428843B90A4412B2B2F57A7F09DD01223B
:1014300002704FF47A72511A0AB2002ADCBF0022FD
:10144000027091B2B1F57A7F28BF4FF47A71418072
:1014500040F63840C4F200000160704780B507F0E4
:10146000FFFD40F60040C4F20000016841F00101B8
:101470000160016A41F0100101620021816380BDB9
:10148000012818BF704740F2A840C2F20000B0F92E
:1014900002104FF47A720029C8BF0022428040F641
:1014A0003840C4F20000026070470000704700003E
:1014B000FEE70000002070470020704710B542F2A0
:1014C0003C64C2F2000441F2DC21C2F20001204679
:1014D000002209F0F9FB40F6DC21C2F200012046AF
:1014E00009F0E8FB002010BD10B542F23C64C2F2E6
:1014F00000040146204609F0DDFB204609F006FB0A
:10150000002010BD0020704710B542F23C62C2F2CC
:101510000002D2F8BC22D2F81432002B1CBF0120EA
:1015200010BD42F23C64C2F200040A460146204665
:1015300009F0CAFB2046BDE8104009F049BC000094
:1015400010B582B0044642F608507F21C2F2000076
:1015500021708DF807104FF0640C0DF107025E2129
:1015600001236060CDF800C002F0B4FB20B14FF061
:10157000FF3002B010BD00BF9DF8070020700020B2
:1015800002B010BD10B582B004467F2928BF7F216C
:1015900040688DF807104FF0640C0DF107025E21D2
:1015A0000123CDF800C002F095FB18B14FF0FF30D9
:1015B00002B010BD9DF807002070002002B010BDE1
:1015C00080B582B04FF0000C01204FF4E1310022D1
:1015D0000023CDF800C00BF0B9F841F2ED50C0F691
:1015E000000002B0BDE880400CF076B810B540F2C3
:1015F000B460C2F200000F210DF094FCD8B140F2AB
:101600009424C2F20004D4E94601884208BF10BD08
:10161000232100FB0141012091F822200BF062FC04
:10162000D4F81801D4F82011013090FBF1F202FB3C
:101630001100C4F8180110BD81B0F0B590B00D468E
:101640000DF12204064615931929A8BF192515ABDB
:10165000691C20460F930EF0A3FF002818BF013825
:10166000A84228BF28464FF48051ADF80010310A37
:1016700001308DF802100021420810F0FE008DF8B4
:1016800003608DF804108DF805208DF806000FD04A
:1016900000206A4604EB4001497802EB4003D9710F
:1016A0009DF8061014F81070013088421F72F1D3B3
:1016B0006F460731384600F055FA40F29425C2F2E1
:1016C0000005D5E947139DF806204E1C96FBF3F460
:1016D000174404FB1363D5F8186140BAB342A7F866
:1016E000070011D0232001FB00500932694680F821
:1016F0002220FEF78DFDD5E94701013090FBF1F284
:1017000002FB1100C5F81C0110B0BDE8F04001B0AB
:1017100070470000B0B588B0002041F24C0106903F
:10172000C4F202010A6840F2004442F002020A6078
:101730000968C4F6000401F00201079107994025E9
:101740000121A562CDE90210CDE9040001A92046DE
:10175000019506F047FBA56108B0B0BDB0B582B0F9
:10176000072822D840F27025C2F2000504462868F6
:10177000A0421AD00EA0005D4FF00A0C8DF80700B1
:1017800042F60850C2F200000DF10702E0210123E9
:10179000CDF800C002F09EFA30B107A168200DF02C
:1017A00083FF02B0B0BD00BF2C6002B0B0BD00BF6F
:1017B0000102040810204080434849505F544341CF
:1017C00039353438415F53656C6563744368616EC5
:1017D0006E656C2069696320636F6D6D756E6963FA
:1017E0006174696F6E206661696C65640000000059
:1017F00070B584B0044602200DF10E01CDE9001051
:1018000042F6085000260A25C2F20000902100226C
:101810000123ADF80E60029502F03EFB054648B18B
:1018200013A168200DF040FFB5FA85F0400904B01F
:1018300070BD00BF9DF80E009DF80F10000140EA3A
:1018400011114FF20002CFF6FF72B6EBD02F18BF86
:10185000114300EE101A9FED101AB8EEC00A20EEE8
:10186000010A84ED000AB5FA85F0400904B070BDA4
:10187000544D5031303220726561642074656D7052
:1018800065726174757265207265676973746572DB
:10189000206661696C6564000000803D10B584B00D
:1018A0004AF26000ADF80E0002200DF10E01CDE904
:1018B000001042F608504FF47A74C2F200009021F2
:1018C00001220123029402F003FC044618B104A192
:1018D00068200DF0E9FEB4FA84F0400904B010BDB0
:1018E000544D5031303220777269746520636F6EC9
:1018F00066696720726567697374657220666169DD
:101900006C65640010B586B040F60004C4F60004AF
:1019100020464FF40051002202F0EEF8322001F090
:1019200015FE20464FF40051012202F0E5F8322066
:1019300001F00CFE49F28D2049F29521C0F600001D
:10194000C0F600010DF03AFC49F2792049F2652118
:10195000C0F60000C0F600010DF04CFC49F29D20DD
:1019600049F23D51C0F60000C0F600010DF05EFCEA
:101970004FF00230CDE90300CDE9010001A90120BB
:101980000CF0E8F9013006D141F60511C0F601016D
:1019900066200DF089FE0DF117010F200CF0DAF929
:1019A000013003D000F00EF806B010BD41F6211151
:1019B000C0F6010166200DF077FE00F003F806B0D6
:1019C00010BD0000B0B58CB040F258240020C2F227
:1019D0000004CDF82B000A90002021460CF01EF9DF
:1019E00004AD012029460CF019F92846214617229A
:1019F000FEF732FC41F6C80141F6E502C0F60101EE
:101A000000284FF06600C0F6010208BF11460DF035
:101A10004BFE0AAC082021460CF09CF941F63C1123
:101A2000C0F60101662022460DF03EFE9DF8120030
:101A30009DF810209DF811309DF813109DF8154069
:101A40009DF814508DE8230021A1662003940DF029
:101A50002BFE9DF818009DF816209DF817309DF874
:101A60001950009024A1662001950DF01DFE9DF8EF
:101A700020009DF81E209DF81F309DF821500090F9
:101A800022A1662001950DF00FFE9DF81C009DF827
:101A90001A209DF81B309DF81D50009020A1662053
:101AA00001950DF001FE9DF824009DF822209DF87F
:101AB00023309DF8255000901EA1662001950DF061
:101AC000F3FD21A166200DF0EFFD0CB0B0BD00BF0D
:101AD0004D41433A20253032583A253032583A2584
:101AE0003032583A253032583A253032583A25307B
:101AF00032580D0A000000005349503A2025642E48
:101B000025642E25642E25640D0A00004741523AB3
:101B10002025642E25642E25642E25640D0A0000E0
:101B20005355423A2025642E25642E25642E2564C3
:101B30000D0A0000444E533A2025642E25642E25BC
:101B4000642E25640D0A00003D3D3D3D3D3D3D3D7B
:101B50003D3D3D3D3D3D3D3D3D3D3D3D3D3D0D0A18
:101B600000000000F0B589B14A1E92B241F2C8638C
:101B700041F2C87E01F0030C032AC0F60103C0F64F
:101B8000010E0BD2FF21FF2231E000BFFF22FF2117
:101B9000C8B240EA022080B2F0BD00BF21F00304C9
:101BA0000025FF21FF2200BF10F8046BD2B2724063
:101BB0009E5C10F8037CC9B2714079401EF8022087
:101BC0005E5C10F8027C72407A401EF801109E5C48
:101BD00010F8017C714079401EF802205E5C0435EB
:101BE0001EF80110AFB2A74282EA0602DCD1BCF1B6
:101BF000000FCDD00478D2B254401A5DBCF1010F71
:101C000082EA01021EF80410C2D04478D2B25440D5
:101C10001A5DBCF1020F82EA01021EF80410B7D06F
:101C20008078D2B250401A5C4A401EF80010C8B208
:101C300040EA022080B2F0BD40F2B440C2F200009F
:101C400001F026BB42F62830C2F2000001F020BBB2
:101C500042F68830C2F2000001F01ABB42F6E830CA
:101C6000C2F2000001F014BB42F64840C2F200008C
:101C700001F00EBB42F6A840C2F2000001F008BB22
:101C80007047000083B0B0B581B041F6043484469B
:101C900005A8C2F200040EC005AB20464FF48071C7
:101CA000624600934FF480750EF07AFCB0F5807FA9
:101CB00038BF054620462946FFF726FC01B0BDE89F
:101CC000B04003B070470000EFF3108072B6704769
:101CD000EFF3108072B600BFFEE7000062B67047F7
:101CE00040F27420C2F20000027F02F0FD010129DF
:101CF00042F20001C4F2020106D002F0FE02022A02
:101D000016D00021017770470B6823F400730B6035
:101D10000B6843F400630B600B6823F400630B60F3
:101D20000B6843F400730B6002F0FE02022AE8D154
:101D30000A6842F480520A600A6822F480520A60FB
:101D40000A6842F480620A6000210177704700004F
:101D500070B542F210060446C4F2020601F0D2FE4B
:101D6000054600BF3068C00306D501F0CBFE401B1E
:101D7000A042F7D9032070BD30684CF2FA3101401F
:101D80000AD040F27420C2F2000042680A43426066
:101D90000120316070BD00BF3068C0074FF0000007
:101DA00008BF70BD0121316070BD0000B0B582B0C8
:101DB00004460020019094F85800012802D1022026
:101DC00002B0B0BD012084F8580020460D46FEF751
:101DD000EDFDE16D10B141F010014BE041F2021256
:101DE00091430231E16521684FF6C073D1F808C014
:101DF000C3F6FF7303EA0C0305F080454DF601625C
:101E00002B44C0F2040203F100438B608B68B3F1F2
:101E1000FF3F2BDC019B01330193019B93421DD8B3
:101E20008B68B3F1FF3F21DC019B01330193019BE0
:101E3000934213D88B68B3F1FF3F17DC019B01334A
:101E40000193019B934209D88B68B3F1FF3F0DDCEE
:101E5000019B01330193019B9342D7D9E06D40F080
:101E6000100020F00201012004E000BFE16D01221A
:101E700062F30101E165002184F8581002B0B0BDA1
:101E800070B582B090F85820012A03D1022108468B
:101E900002B070BD002201920092026840F2080C6C
:101EA000C5F2000CB2F1A04F0CF1F80508D040F2D9
:101EB0000043C5F200039A423ED10CF59F6300E057
:101EC0002B469B68946823435B0735D44FF4E0634B
:101ED000D1F800E0AA4208BF4FF44073B2F1A04F1E
:101EE00008BF4FF440735CF80340BEF1000F24F4C8
:101EF00060442DD04D6890F8386042F4807245EA15
:101F000046352C4340F20015C5F20005AA424CF8B4
:101F1000034037D1DCF80020DCF800412243D2072F
:101F20003AD15CF8032040F61F748968A24311433C
:101F300041EA0E0122E000BFC16D41F02001C16500
:101F40000121002280F85820084602B070BD00BF71
:101F500042F4807140F20012C5F2000291424CF846
:101F600003401BD1DCF80010DCF800211143C90745
:101F70001ED15CF8031040F61F7291434CF8031019
:101F80000021DEE7DCF80044DCF80055DCF8002630
:101F90002C432243D207C4D00021D2E7DCF800242E
:101FA000DCF80065DCF8001632431143C907E0D0C5
:101FB0000021C6E7F0B581B00022009290F85820C9
:101FC000012A03D10221084601B0F0BD01230768B0
:101FD00080F85830BB685B0736D4D1E900531F2620
:101FE000C3F3012407EB8404226B03F01F039E401C
:101FF000B243C5F3846606FA03F31A432263BA6850
:10200000BB6802F0040203F00803D21840F0BD8060
:102010000A6807F114030426C2F34064D1F808E00B
:1020200006EAD25C53F82440C2F304550722AA40C2
:10203000BEF1004F24EA02040CD143F80C401A68A8
:1020400042F000430EE000BFC16D41F02001C165C8
:1020500001219DE10EFA05F2224343F80C201A6893
:1020600022F000437B61D1E90435FC68042B5FD189
:102070003A6E3A6E0B68C2F3846293FAA3F6C3F326
:10208000846C6FF3DF43B6FA86F5002B2C464FF6CF
:10209000FF7E08BF6446A242C0F2070E0CD13A6E22
:1020A00022F000423A660A6802EA0E03C2F3846C28
:1020B00092FAA2F2B2FA82F57A6E7A6E002BC2F32D
:1020C00084622C4608BF6446A2420CD17A6E22F08C
:1020D00000427A660A6802EA0E03C2F3846C92FA3E
:1020E000A2F2B2FA82F5BA6EBA6E002BC2F3846223
:1020F0002C4608BF6446A2420CD1BA6E22F00042C0
:10210000BA660A6802EA0E03C2F3846C92FAA2F27B
:10211000B2FA82F5FA6EFA6E002BC2F3846208BF3F
:102120006546AA4231D1FA6E22F00042FA662CE0EE
:10213000062202EA940205FA02FC0E6807F1600525
:1021400055F823404FF20002C0F2FF3206F0F84685
:10215000224046EA0C06324342F0004245F8232072
:102160000A698B6955F8226026F08076334345F87A
:1021700022300A690B7F55F82260012B26F0007689
:1021800008BF06F1007645F82260BA68D20750D140
:102190000D68CA68D7F8B0602B466FF3DF4326EAB4
:1021A000030C4FF6FF7602F01804C0F20706E64073
:1021B00000242E40C4F27F0446EA0C06A242C7F86F
:1021C000B06036D193B195FAA5F2B2FA82F201323B
:1021D00002F01E03092B02F01F0310D801229A40BF
:1021E00003EB430342EA035315E000BF012202EB75
:1021F000956202F01E030A2B02F01F03EED30122A8
:1022000000269A4003EB4303CFF6206606EB035308
:102210001A4342F00073C3F3406607EB86068A68F0
:102220007569C3F3045307249C40A5439A402A438D
:1022300072610B680021C8F208010B4266D040F2BF
:10224000003EC5F2000EAEF500710EF580648F42BF
:1022500004BF40F20034C5F200042146B7F1A04F9C
:1022600004BF40F20031C5F200018D680022CCF2BB
:102270002132934205F0E07C04D01022C9F2C00262
:10228000934245D12A0261D440F20062C5F20002B5
:10229000974202D0B7F1A04F5AD18A6822F0E0727B
:1022A00042EA0C0242F400028A6040F2CC01C2F21F
:1022B0000001096842F663528909C0F23E52A1FB4F
:1022C0000212910901EB41010C2202EB8101009104
:1022D0000099002948D000990139009100990029FE
:1022E00044D00099013900910099002940D000990B
:1022F00001390091009900293CD0009901390091E1
:10230000009900294FF00001E5D141E000213FE0B4
:102310000022CCF25272934208BF15F0807219D09D
:102320000021CCF684318B424FF0000108BF15F438
:1023300080022DD1B7F1A04F1FD040F20011C5F29D
:1023400000018F4218D1002122E000BF00211FE0D0
:1023500000211DE08A6822F0E07242EA0C0242F09D
:1023600080728A60002113E0002111E000210FE05B
:1023700000210DE000210BE0A646DEF8081021F058
:10238000E07141EA0C0141F48001CEF8081000210F
:10239000002280F85820084601B0F0BD2DE9F04138
:1023A0002DED028B006800F130404FEA3020062806
:1023B00000F2A183DFE810F0080042009F039F03B2
:1023C000E4008601FC0200BF43F698040020C2F23C
:1023D000000400212218B2F88830B2F88C70194439
:1023E000B2F88A30B2F88E20194439440830B0F57A
:1023F000487F1144EED100EE101A9FED0E1AB8EE90
:10240000400A80EE010A04F16C000BF0D9F994ED5A
:102410001E0A9FED091A40F24860C2F20000012135
:1024200020EE010A817084ED010ABDEC028BBDE84B
:10243000F08100BF0000C843EBE2523A43F6980433
:102440000020C2F2000400222118B1F8C833B1F80C
:10245000CC731A44B1F8CA3350301A44B1F8CE33B1
:102460003A44B1F8D0731A44B1F8D2333A44B1F8CF
:10247000D4731A44B1F8D6333A44B1F8D8731A4435
:10248000B1F8DA333A44B1F8DC731A44B1F8DE3308
:102490003A44B1F8E0731A44B1F8E2333A44B1F87F
:1024A000E4731A44B1F8E6333A44B1F8E8731A44D5
:1024B000B1F8EA333A44B1F8EC731A44B1F8EE33A8
:1024C0003A44B1F8F0731A44B1F8F2333A44B1F82F
:1024D000F4731A44B1F8F6333A44B1F8F8731A4475
:1024E000B1F8FA333A44B1F8FC731A44B1F8FE3348
:1024F0003A44B1F800741A44B1F802343A44B1F8DD
:1025000004741A44B1F806343A44B1F808741A4411
:10251000B1F80A343A44B1F80C741A44B1F80E34E4
:102520003A44B1F810741A44B1F812343A44B1F88C
:1025300014741A44B1F816143A44B0F5487F0A44AA
:1025400082D100EE102A1FED451AB8EE400A80EE47
:10255000010A04F56B700BF033F994EDEE0A1FEDF0
:102560004A1A40F24860C2F20000012120EE010A3E
:10257000C17084ED020ABDEC028BBDE8F08100BFA2
:1025800043F698050020C2F2000500222918B1F890
:102590000837B1F80C771A44B1F80A3750301A44AA
:1025A000B1F80E373A44B1F810771A44B1F812373F
:1025B0003A44B1F814771A44B1F816373A44B1F8EE
:1025C00018771A44B1F81A373A44B1F81C771A440C
:1025D000B1F81E373A44B1F820771A44B1F82237DF
:1025E0003A44B1F824771A44B1F826373A44B1F89E
:1025F00028771A44B1F82A373A44B1F82C771A44AC
:10260000B1F82E373A44B1F830771A44B1F832377E
:102610003A44B1F834771A44B1F836373A44B1F84D
:1026200038771A44B1F83A373A44B1F83C771A444B
:10263000B1F83E373A44B1F840771A44B1F842371E
:102640003A44B1F844771A44B1F846373A44B1F8FD
:1026500048771A44B1F84A373A44B1F84C771A44EB
:10266000B1F84E373A44B1F850771A44B1F85237BE
:102670003A44B1F854771A44B1F856173A44B0F5D1
:10268000487F0A4482D100EE102A1FED961AB8EE58
:10269000400A80EE010A05F2EC6420460BF090F847
:1026A00094ED030A1FED9C1A40F24860C2F200004C
:1026B000012120EE010A017185ED030ABDEC028BB8
:1026C000BDE8F081FEF79CFE43F69805002040F639
:1026D0004621C2F2000500BF6A1857882B1803F67E
:1026E0004823A3F8C07C97882831A3F8A079D7881D
:1026F000A3F8C27C1789A3F8A27905EB4007B7F8C5
:10270000506A1430A3F8C46C9689B0F5487FA3F8DA
:10271000A469D689A3F8C66C168AA3F8A669568A56
:10272000A3F8C86C968AA3F8A869D68AA3F8CA6CDD
:10273000168BA3F8AA69B7F8607AA3F8CC7C978BBC
:10274000A3F8AC79D78BA3F8CE7C178CA3F8AE791D
:10275000578CA3F8D07C978CA3F8B079D78CA3F8CA
:10276000D27C128DA3F8B229B6D1002041F230718B
:102770004FF4B95C4FF4BA5E002700BF2C186618FE
:1027800036F8282C36F8243C3A4436F8267C50306B
:102790003A441A4436F8223C36F8207C1A4436F87B
:1027A0001E3C3A4436F81C7C1A4436F81A3C3A442B
:1027B00036F8187C1A4436F8163C3A4436F8147C3D
:1027C0001A4436F8123C3A4434F80C701A4436F87D
:1027D0000E3C3A4436F80C7C1A4436F80A3C3A442B
:1027E00036F8087C1A4436F8063C3A4436F8047C3D
:1027F0001A4436F8023C3A44675A1A4473883A44F9
:10280000B7881A44F3883A4437891A4473893A449A
:10281000B7891A44F3893A4434F80E401A44738A4B
:102820002244B48A1A44F38A2244348B1A44738BA8
:102830002244B48B1A44F38B2244348C1A44738C94
:102840002244B48C1A44F38C2244B0F5487F02EB46
:10285000030793D100EE107A9FEDAA8AB8EE400AE2
:1028600080EE080A05F62C200AF0AAFF40F248681C
:10287000C2F20008012088F80500002041F2104152
:102880004FF4A05C4FF4A15E002700BF2E1874180F
:1028900034F8282C34F8243C3A4434F8267C503060
:1028A0003A441A4434F8223C34F8207C1A4434F870
:1028B0001E3C3A4434F81C7C1A4434F81A3C3A441E
:1028C00034F8187C1A4434F8163C3A4434F8147C32
:1028D0001A4434F8123C3A4436F80C701A4434F86E
:1028E0000E3C3A4434F80C7C1A4434F80A3C3A441E
:1028F00034F8087C1A4434F8063C3A4434F8047C32
:102900001A4434F8023C3A44775A1A4463883A44E9
:10291000A7881A44E3883A4427891A4463893A44C9
:10292000A7891A44E3893A4436F80E601A44638A48
:102930003244A68A1A44E38A3244268B1A44638BB3
:102940003244A68B1A44E38B3244268C1A44638C9F
:102950003244A68C1A44E38C3244B0F5487F02EB33
:10296000030793D100EE107AB8EE400A80EE080A11
:1029700041F2CC302C1820460AF022FF94ED030AD5
:102980009FED5F1A05F6382120EE010A85ED000A59
:1029900091ED000A012020EE010A88F8050085ED7E
:1029A000040ABDEC028BBDE8F041FEF721BD00BF7B
:1029B00043F69800C2F2000041F29801014491ED03
:1029C000000A9FED4F1A41F2F60120EE010A014480
:1029D00000234FF4C87280ED050A00BF31F84E7C29
:1029E00031F84A6C3B4431F84C7C283A3B4431F88E
:1029F000487C334431F8466C3B4431F8447C3344E2
:102A000031F8426C3B4431F8407C334431F83E6C41
:102A10003B4431F83C7C334431F83A6C3B4431F868
:102A2000387C334431F8366C3B4431F8347C3344E1
:102A300031F8326C3B4431F8307C334431F82E6C41
:102A40003B4431F82C7C334431F82A6C3B4431F858
:102A5000287C334431F8266C3B4431F8247C3344E1
:102A600031F8226C3B4431F8207C334431F81E6C41
:102A70003B4431F81C7C334431F81A6C3B4431F848
:102A8000187C334431F8166C3B4431F8147C3344E1
:102A900031F8126C3B4431F8107C334431F80E6C41
:102AA0003B4431F80C7C334431F80A6C3B4431F838
:102AB000087C334431F8066C3B4431F8047C3344E1
:102AC00031F8026C3B4431F8507B33443B4485D1B0
:102AD00000EE103A9FED0B1AB8EE400A80EE010AA4
:102AE00041F28C0108440AF06BFE40F24860C2F2E9
:102AF000000001218171BDEC028BBDE8F08100BFB7
:102B0000EBE2523A0000C8437047000070470000F3
:102B1000B0B582B00446002001904CB1E06D58B1D0
:102B200021688868800012D48868C00019D54CE0FC
:102B3000012002B0B0BD00BF204600F027F9002000
:102B4000206684F85800216888688000ECD5886881
:102B50004FF6C072C5F6FF72104088608868C000EA
:102B600033D44FF6C0728868C5F6FF7202F1805206
:102B7000104000F18050886040F2CC00C2F20000AA
:102B8000006842F663528009C0F23E52A0FB020286
:102B90009009022202EB400001900198A8B100BF09
:102BA000019801380190019878B10198013801909D
:102BB000019850B1019801380190019828B101980D
:102BC0000138019001980028EAD18868C00009D432
:102BD000E06D40F01000E065206E40F001002066DE
:102BE000012000E000208A68E36D02F0040203F097
:102BF0001003D218E26D40F0818022F4817202321B
:102C0000E2658A68D20729D140F2001341F480724C
:102C1000C5F2000340F2080C9A42C5F2000C73D1D1
:102C2000DCF80030DCF800211A43D20716D10CF191
:102C3000F8024FF4E063D4F804E0914208BF4FF487
:102C40004073B1F1A04F08BF4FF440735CF803200C
:102C500022F47C1242EA0E024CF80320627FE36BFE
:102C600043EA4232D4E902C31A4394F8243042EAD8
:102C70000C02012B42EA034207D1D4F828C00023FA
:102C8000CFF6FE7303EB4C431A43E36A33B1D4F837
:102C900030C003F4787343EA0C031A43D1F80CC034
:102CA00044F20703CFF6F07303EA0C031A43CA6039
:102CB0000A69636B22F040621A430A618A6812074C
:102CC00053D494F83820237F520042EA833CCB68E7
:102CD00044F2020223EA020242EA0C02CA602269BA
:102CE0000B69FAB143F480330B61D1F8C0C043F6ED
:102CF000FF732CEA03031A431CE000BF42F01001EB
:102D00000120E16502B0B0BDDCF800E4DCF800258C
:102D1000DCF8003642EA0E021A43D2073FF487AFCE
:102D20009CE700BF23F480320A61D1F8C02043F64B
:102D3000FF739A43C1F8C02094F840300A69012B10
:102D400010D140F2FD7322EA030CD4E91132D4E928
:102D500013E543EA0C031A4342EA0E022A4342F007
:102D6000010201E022F001020A6162690B6B012A93
:102D700023F00F0202D1236A013B1A430A63E16D7B
:102D8000012262F30101E16502B0B0BD2DE9F0411D
:102D90009CB0044600201B90CDE91900CDE9170036
:102DA00002A85421FDF74DFA206800F130404FEAA7
:102DB0003020062800F29581DFE810F00800560068
:102DC00093019301A400E6003A0100BF4FF40040D4
:102DD00002904FF00050139002A802F075FC0028FA
:102DE00018BFFEF775FF40F2AC45C2F20005296836
:102DF00041F24C00C4F202004A1C2A6041B9016849
:102E000041F400510160016801F400510191019900
:102E10000168002641F001010160006817A900F077
:102E200001000190019801201790032018904FF0A5
:102E30009040199600F08AFD0820C4F2020045F87F
:102E4000080F052080214FF48072C5E9010605F1C5
:102E500014004FF480634FF0200C4FF4805EC5E9FE
:102E6000036180E80C5032E14FF4004002904FF0D3
:102E70000050139002A802F027FC002818BFFEF7AC
:102E800027FF40F2AC41C2F200010A6841F24C0057
:102E9000C4F20200531C0B6042B9016841F40051B6
:102EA0000160016801F400510191019901688026D7
:102EB00041F0010101600068002700F0010001906D
:102EC00001980320189017A94FF090401796199772
:102ED00000F03CFD0820C4F2020042F62835143010
:102EE000C2F200054FF480724FF480634FF0200C63
:102EF000242185E88300C5E90376C5E90523C5F8E3
:102F00001CC0E1E04FF4803002904FF0004014907C
:102F100002A802F0D9FB002818BFFEF7D9FE40F244
:102F2000AC41C2F200014A6841F24C00C4F2020016
:102F3000531C4B6042B9016841F480410160016853
:102F400001F48041019101990168002641F00201DC
:102F50000160006817A900F00200019001980220AA
:102F600017900320189040F20040C4F60000199614
:102F700000F0ECFC0820C4F2020042F6883528304C
:102F8000C2F20005252141E04FF4803002904FF05D
:102F90000040149002A802F097FB002818BFFEF72B
:102FA00097FE40F2AC41C2F200014A6841F24C0087
:102FB000C4F20200531C4B6042B9016841F48041E5
:102FC0000160016801F480410191019901680026C6
:102FD00041F002010160006817A900F002000190B1
:102FE00001984FF4404017900320189040F20040A1
:102FF000C4F60000199600F0A9FC0820C4F20200F3
:1030000042F6E8353C30C2F20005262180224FF41A
:1030100080734FF480674FF0200C28606960AE60C9
:10302000EE602A616B61AF61C5F81CC04CE000BF67
:103030004FF4803002904FF00040149002A802F04C
:1030400043FB002818BFFEF743FE40F2AC41C2F23A
:1030500000014A6841F24C00C4F20200531C4B606C
:1030600042B9016841F480410160016801F4804186
:103070000191019901684FF4807841F001010160EC
:103080000068002700F001000190019803201890CB
:1030900017A94FF09040CDF85C80199700F056FCCE
:1030A0000820C4F2020042F648455030C2F2000542
:1030B00080224FF480632026272185E88300C5E91C
:1030C0000372C5E90583EE614FF4805028622846FB
:1030D00000F034F905F1280608B1FEF7F9FD656541
:1030E00034601CB0BDE8F0812DE9F041044640F2A7
:1030F00000170068C5F200074FF4C163B84208BF6B
:103100004FF40273B0F1A04F08BF4FF40273DB59C4
:1031100086689046720704D40E4694F85810012928
:1031200002D10220BDE8F08107F5A06203F01F057F
:103130000121904284F8581018BF002D08D1204674
:10314000FDF772FC70B1002184F85810BDE8F081E1
:10315000052DF4D0092DF2D0002084F8580001206C
:10316000BDE8F0812168E06D40F60172904300F502
:103170008070B942E06509D040F20050C5F200000D
:10318000814209D107F5407002E000BF4FF0A04036
:10319000884218BF002D03D1E06D20F48010E06557
:1031A000E06D40F62913C0044FF0000044BF206ECC
:1031B00020F006002066606D40F6A517C0F60003FB
:1031C000C0F6000740F68D150022C0F60005C0E9E4
:1031D0000B371C2345630B6084F858204A6843462C
:1031E00042F010024A60CA6842F00102CA604031EF
:1031F000324600F039F921684FF6C0738A68C7F685
:10320000FF731A4004328A60BDE8F08180B590F8FF
:10321000251002292ED10168D0E910CE826C0B68EE
:1032200023F00E030B600B6823F001030B601168A1
:1032300021F4807111600EF01F02012101FA02F2E7
:10324000CCF80420D0E913325A60426D32B11368D1
:1032500023F480731360D0E91623536080F825109F
:10326000826B002180F824100AB1904700210846A3
:1032700080BD00BF0421C1630121002280F8251018
:1032800080F82420084680BD90F825007047000093
:10329000B0B5D0E910C30268DCF8001003F01F03DA
:1032A0000424D2F800E09C400C4218BF1EF0040534
:1032B00022D102249C400C4218BF1EF0020529D1E5
:1032C000D940090724D51EF0080108BFB0BD116818
:1032D00021F00E011160012101FA03F2CCF8042063
:1032E000C16380F82510416B002280F8242079B159
:1032F000BDE8B040084700BF1168890603D41168D3
:1033000021F004011160CCF80440016B0029EFD1D9
:10331000B0BD00BF1168890606D4116821F00A010A
:103320001160012180F82510CCF80440C16A002208
:10333000002980F82420DBD1EAE7000000284FF0C4
:10334000010100F08E802DE9F04740F2000CC4F23C
:10335000020C03684FF6F8320CF5816ECBF6FD7265
:10336000734538BF02F580624CF6CD441A44CCF662
:10337000CC44A2FB042803F0FC02A2F10802A2FB49
:1033800004290CF580656FF00304D0E90262D0F8DF
:1033900010A03CBF0025C4F2020504EA9804C0E96D
:1033A0001054022580F825501D6847F6F07725EA6D
:1033B00007073A43476942EA0A0285693A43C769FF
:1033C0002A43056A3A432A4332431A600CF50262E3
:1033D000734538BF0CF50062A3180CF50862C2648F
:1033E000C9F3041240F6840C01FA02F2B6F5804FDC
:1033F000C4F2020C8364026506D1002141601960A9
:10340000CCF800201EE000BF41685FFA81FE013960
:1034100003294FF00001C3F800E0CCF8002011D8D8
:10342000AEF101020CEB820747F87C1F02F01F018E
:10343000012202FA01F30CF1BC023946CCF8C0308B
:1034400002E000BF0022002300F1540C8CE80E00C3
:1034500000210122C16380F8252080F82410BDE8F6
:10346000F0470846704700002DE9F04190F824C06D
:10347000BCF1010F43D04FF0010C80F824C090F84C
:1034800025C0BCF1010F37D14FF0020C80F825C0E8
:103490004FF0000CC0F83CC0D0F800C000F14C0E5A
:1034A0009EE83040DCF80060BEF1000F26F0010617
:1034B000CCF8006065601CBFD0E916456560D0E9B6
:1034C0001076012506F01F068468B540D0F83080DC
:1034D0007D60CCF804300B46102C04BF13460A461E
:1034E000CCF80830CCF80C20DCF80010B8F1000F54
:1034F00008D041F00E010DE0002180F824100220D8
:10350000BDE8F08121F00401CCF80010DCF80010D7
:1035100041F00A01CCF80010806C0168C90303D5A2
:10352000016841F480710160BEF1000F05D0DEF842
:10353000000040F48070CEF80000DCF8000040F09D
:103540000100CCF800000020BDE8F081B0B50446D1
:1035500000F0D8FA054640F22C00C2F200004068A4
:10356000611C18BF044400BF00F0CCFA401BA0420D
:10357000FAD3B0BD2DE9F04740F27429C2F2000938
:1035800099F80020012A04BF0220BDE8F087054613
:10359000012089F800004FF47A708846FEF7D8FBC6
:1035A00020B1002189F80010BDE8F08742F214072D
:1035B0000020C4F20207C9F8040057F8140C57F8A9
:1035C000141C49054CD4C0F3402089F81C0028681D
:1035D000012856D04FF0FF30C8F80000D5E902406E
:1035E0002044844234D2E60040F2FA3A6868F9682E
:1035F000490203D4386820F4006006E0C007396847
:103600000CBF41F4006021F400603860386806F4B3
:10361000FF6120F47E7008433860386840F0020093
:103620003860386840F4803038604FF47A70FEF7C4
:103630008FFB3968002821EA0A01396040F07E805A
:10364000D5E9020101340844844206F10806CDD3CD
:10365000002099F81C1001F0FD02012A38D04FE03B
:1036600057F8141C10F400704FF0030021F480612F
:1036700008BF022047F8141C89F81C00286801289C
:10368000A8D16868F968490202D448F2040009E048
:10369000C10703D0396841F004013960800704D5BF
:1036A0004FF40040396808433860386840F480308F
:1036B00038604FF47A70FEF74BFB396848F2040229
:1036C0009143396099F81C1001F0FD02012A17D1CD
:1036D00057F8142C22F4007247F8142C57F8142CC5
:1036E00042F4006247F8142C57F8142C22F40062BC
:1036F00047F8142C57F8142C42F4007247F8142C95
:1037000001F0FE01022911D157F8141C41F4805137
:1037100047F8141C57F8141C21F4805147F8141C66
:1037200057F8141C41F4806147F8141C002189F8F3
:103730001C10002189F80010BDE8F087C8F800408F
:1037400099F81C1001F0FD02012AC1D0D8E7000051
:1037500042F21400C4F20200016841F0004101602D
:103760000068C043C00F70472DE9F04740F274294C
:10377000C2F20009924699F80020012A04BF0220F3
:10378000BDE8F087804642F2100501201F460E4634
:10379000C4F2020589F8000000F0B4F9044600BF45
:1037A0002868C0030CD500F0ADF9001BB0F57A7F96
:1037B000F6D90324002089F800002046BDE8F087F0
:1037C00028684CF2FA3108400CD0D9F804100124D2
:1037D0000143C9F804102860002089F80000204641
:1037E000BDE8F0872868C0071CBF012028600020C2
:1037F000C9F8040055F8101C490506D555F8100CF9
:1038000020F4806045F8100C0220B8F1000F89F810
:103810001C0045D0A8F1010001284FD86868AAF122
:10382000400240F480206860EFF31080EFF31081D5
:1038300072B6A6F14001402352F8407F103B41F898
:10384000407F57681E064F6097688F60D768CF60CB
:1038500017690F6157694F6197698F61D769CF61A8
:10386000176A0F62576A4F62976A8F62D76ACF6290
:10387000176B0F63576B4F63976B8F63D76BCF6378
:10388000DAD1B8F1020718BF012780F310884FF092
:10389000FF36B8F1020F08BF6FF4802611E000BFB9
:1038A000686840F001006860C6F800A0BFF36F8F41
:1038B00077606FF00106002703E000BF4FF0FF368E
:1038C000012700F01FF904462868C00308D500F05E
:1038D00019F9001BB0F57A7FF6D9032412E000BF76
:1038E00028684CF2FA31084006D0D9F804100124B7
:1038F0000143C9F8041004E028680024C00701D07F
:103900000120286017B9686830406860FEF7E8F960
:10391000002089F800002046BDE8F08742F2080048
:10392000C4F20200C168B1F1FF3FC4BF002070477C
:1039300040F22311C4F26751016048F6AB11CCF696
:10394000EF510160C068C00F704700002DE9F04FD3
:1039500082B00D68002D00F0CB8041F2004400F1F0
:103960003847C4F6000406224FEAB726A04208BF33
:103970000522052E38BF4FEAB722002401274FF059
:10398000000E0026009209E00D68013635FA06F2B5
:103990000EF1040E04F1020400F0AA8007FA06FBFF
:1039A00015EA0B08F0D0D1F804A003220AF0030CAA
:1039B000ACF10105A240012D6FEA020910D882681E
:1039C000CD6802EA0902A5402A4382604268CAF330
:1039D000001522EA0B02B5402A43426006E000BF10
:1039E000BCF1030F02D14FF0030C21E0C2688D68D7
:1039F00002EA0902A5402A43BCF1020FC26017D1B6
:103A00006FF0030202EA560202440EF01C030F2577
:103A1000D2F820C005FA03FA0D692CEA0A0C05FA5F
:103A200003F343EA0C031362D1F804A00AF0030C79
:103A300002680CFA04F302EA09021A431AF4403F3E
:103A40000260A1D041F26003C4F202031A6840F29E
:103A5000004942F001021A601A68C4F2010902F03A
:103A600001020192019A26F003024FF6084A4A44E5
:103A7000CFF6FF7A52F80AC00EF00C050F23009F14
:103A8000AB402CEA030307FA05F52B4342F80A3052
:103A9000D9F808C04B684CEA0805DA0258BF2CEA8E
:103AA000080540F20C4CC9F80850C4F2010CDCF8CF
:103AB00000209F0242EA080558BF22EA0805CCF818
:103AC0000050D9F804209D0342EA080758BF22EAB3
:103AD0000807C9F80470D9F80020DB0342EA080798
:103AE00058BF22EA0807C9F8007001274CE700BF59
:103AF00002B0BDE8F08F00001823002A08BF282379
:103B0000C150704745F2C830C2F2000000687047EB
:103B100090F84120202A03D190F84020012A01D1B9
:103B200002207047242280F841200268136823F0A5
:103B300001031360136823F480531360136819435F
:103B40001160116841F001011160202180F84110DD
:103B5000002180F8401008467047000090F841208E
:103B6000202A03D190F84020012A01D10220704779
:103B7000242280F841200268136823F001031360B7
:103B8000136823F4706343EA01211160116841F066
:103B900001011160202180F84110002180F84010BF
:103BA000084670477047000070470000D0F800C01A
:103BB000DCF81830DCF80020D90502F0800208D5C6
:103BC0003AB1416C41F0010141644FF48071CCF88D
:103BD0001C10590508D53AB1416C41F00801416407
:103BE0004FF48061CCF81C10990508D53AB1416CAE
:103BF00041F0020141644FF40071CCF81C10416C9B
:103C000011F00B0F08BF704703F03CBB0268436B19
:103C100091691268002B08BF704718477047000071
:103C2000002804BF0120704710B5044690F84100F9
:103C300028B9002084F84000204600F065FB2420CD
:103C400084F8410094E80910E2680168012A21F033
:103C50000101016023F070610161816821F400417C
:103C6000816003D14CF40041816009E04CF40441CF
:103C7000022A816004D1416841F4006103E000BF81
:103C8000416821F400614160416804F1100C41F089
:103C9000007141F400414160C16821F40041C160FC
:103CA0009CE80E10114341EA0321C160216A41EAF8
:103CB0000C010160016841F0010101600020202138
:103CC000606484F84110206384F8420010BD000055
:103CD000704700002DE9F04782B0044690F841009B
:103CE000202803D194F84000012803D1022002B01B
:103CF000BDE8F08701201D461746884684F840003D
:103D0000FFF700FF216806468A69120417D42120B4
:103D100084F84100102084F842000020606467624B
:103D200065856063608DB0F5807F23D3FF2020859B
:103D30004FF0807225E000BF88690004E7D5204677
:103D40001921324603F088FD002840F08580FFF7F6
:103D5000D9FE801B21681A28EED388690004EBD5B0
:103D6000606C40F020006064202084F84100012055
:103D700083E000BF608D0028208500F087804FF031
:103D8000007217F8013B8B626762638D013B6385AC
:103D9000431E238543466FF39F23C0B243EA00408E
:103DA000104349F60045CFF600454A68A5F5806303
:103DB0001A40104340F400504860608D0A9F00286C
:103DC00044D040F2000A6FF39F284FF0FF09C0F281
:103DD000FF1A10E0618D2068218550F8042FC9B2C8
:103DE0002A4042EA01414FF0007241EA08011143C2
:103DF0000160608D50B320463946324603F0A8FF7B
:103E000050BB606A216810F8012B8A626062608D85
:103E100001386085208D01382085618D0029E8D02A
:103E20000004E6D12046802100223B46009603F0A4
:103E3000E1FE88B9608DB0F5807FCBD32068A4F80F
:103E4000289050F8041F52462940CEE720463946B4
:103E5000324603F03FFF18B1012002B0BDE8F08701
:103E600020682021C16142684EF60003CFF600634E
:103E70001A404260002084F84110002184F842106A
:103E800084F8401002B0BDE8F08700BF4FF4004254
:103E9000404662F39F2084E72DE9F04F81B004464D
:103EA00090F8410020280DD1DDF828B0BBF1000FBB
:103EB0000CD0DDF82C80B8F1000F07D094F840004A
:103EC00001280BD1022001B0BDE8F08F4FF4007043
:103ED0006064012001B0BDE8F08F00BF01201D46E5
:103EE0001746894684F84000FFF70CFE2168064615
:103EF0008A69120447D422200C9A84F84100402099
:103F00004FF0000A84F84200C4F844A0C4F824B07A
:103F1000A4F82A80C4F834A049F6000390464A6801
:103F2000CFF600436FF39F29E8B249EA00401A40F8
:103F3000104400F5005048602046414632469B46FA
:103F400003F006FFA8B92068012D08D0390A816264
:103F500020464146324603F0FBFE50B92068F9B2D4
:103F600081622046402100224346009603F042FE33
:103F700050B384F840A0012001B0BDE8F08F00BF2D
:103F800088690004B7D520461921324603F064FC45
:103F900000289ED1FFF7B6FD801B21681A28EFD3B9
:103FA00088690004ECD5606C40F02000606420203B
:103FB00084F84100002084F8420084F84000012089
:103FC00001B0BDE8F08F00BF608D40F2000AB0F58F
:103FD000807FC0F2FF1A09D320680AF5105350F809
:103FE000041F01EA0B02FF210BE000BF618D206876
:103FF000CBB250F8042F02EA0B0242EA03420AF560
:1040000092331A4342EA0902FF270BF580650260EA
:10401000218510E0618D2068218550F8042FC9B2F8
:104020002A4042EA01414FF00072114341EA09017E
:104030000160608D80B32046042100224346009633
:1040400003F0D8FD00287FF444AF2068616A406A1D
:104050000870606A218D01306062481E2085618D84
:1040600001396185618D0029E3D00004E1D120464A
:10407000802100224346009603F0BCFD00287FF417
:1040800028AF608DB0F5807FC4D32068278550F8B5
:10409000041F52462940C8E720464146324603F0F5
:1040A00019FE00287FF415AF20682021C161426805
:1040B0004EF60003CFF600631A404260002084F8F9
:1040C000411084F8420084F8400001B0BDE8F08F50
:1040D0002DE9F04F81B0044690F8410020280DD121
:1040E000DDF828B0BBF1000F0CD0DDF82C80B8F162
:1040F000000F07D094F8400001280BD1022001B036
:10410000BDE8F08F4FF400706064012001B0BDE89D
:10411000F08F00BF01201D461746894684F84000F5
:10412000FFF7F0FC216806468A6912044BD421206F
:104130000C9A84F8410040204FF0000A49F60043F1
:1041400084F84200C4F844A0C4F824B0A4F82A803B
:10415000C4F834A0CFF6004390464A689B466FF3FC
:104160009F29E8B2A3F5806349EA00401A40104451
:1041700040F0807040F4005048602046414632468E
:1041800003F0E6FDA8B92068012D08D0390A816244
:1041900020464146324603F0DBFD50B92068F9B2B3
:1041A00081622046802100224346009603F022FDD2
:1041B00050B384F840A0012001B0BDE8F08F00BFEB
:1041C00088690004B3D520461921324603F044FB28
:1041D00000289AD1FFF796FC801B21681A28EFD39C
:1041E00088690004ECD5606C40F0200060642020F9
:1041F00084F84100002084F8420084F84000012047
:1042000001B0BDE8F08F00BF608D0025B0F5807F64
:10421000C0F2FF1508D320682B4650F8041F01EAAE
:104220000B02FF210BE000BF618D2068CBB250F87C
:10423000042F02EA0B0242EA03424FF000731A43D2
:1042400042EA0902FF270260218511E0618D2068A2
:10425000218550F8042FC9B202EA0B0242EA01415B
:104260004FF00072114341EA09010160608D78B39B
:1042700020464146324603F06BFD00287FF445AFEF
:10428000606A216810F8012B8A626062608D0138D3
:104290006085208D01382085618D0029E6D00004DD
:1042A000E4D12046802100224346009603F0A2FC80
:1042B00000287FF42AAF608DB0F5807FC6D32068D8
:1042C000278550F8041F2A4601EA0B01CAE700BF00
:1042D00020464146324603F0FDFC00287FF415AF2E
:1042E00020682021C16142684EF60003CFF60063CA
:1042F0001A404260002084F8411084F8420084F89B
:10430000400001B0BDE8F08F2DE9F04F9BB00446AE
:1043100001A804305021FBF794FF206845F20041CA
:10432000C4F20001884203D01BB0BDE8F08F00BF8B
:10433000402001904FF48050089001A801F0C4F98A
:10434000002818BFFDF7C4FC41F24C07C4F2020775
:1043500038680DF1580A40F00100386038684FF4B1
:10436000004800F00100169016983868012640F0C9
:104370000200386038684FF0000B00F00200169021
:104380001698F868042540F40010F860F868514663
:1043900000F4001016901698386840F0010038605C
:1043A000386800F0010016901698386840F0020056
:1043B0003860386800F00200169016984FF0904070
:1043C000CDF858801796CDE9186B1A95FFF7BEFA0D
:1043D0004FF08009CDE91696CDE9186B40F2004602
:1043E000C4F60006304651461A95FFF7AFFABDF8FD
:1043F00058104FF090400122FFF77EFBBDF8581097
:1044000030460122FFF778FB20681224016841F44E
:1044100000510160016821F40051016030465146AD
:10442000CDF858901794FFF791FA4FF0904051460D
:10443000CDE91684FFF78AFAF868002140F40010ED
:10444000F860F868002200F40010009000981F2027
:1044500000F08CF81F2000F075F8202000210022C9
:1044600000F084F8202000F06DF81BB0BDE8F08F5C
:10447000704700007047000040F22C0045F2C83140
:10448000C2F20000C2F2000140680A6810440860ED
:104490007047000080B542F20000C4F202000168DB
:1044A00041F480710160032000F08CF80F2000F0CF
:1044B00009F800281CBF012080BD00F029F8002069
:1044C00080BD000070B540F22C06C2F20006716893
:1044D000E1B1044640F2CC00C2F200004FF47A721F
:1044E0000068B2FBF1F1B0FBF1F002F0D9FA0F2C49
:1044F0004FF0010508D838B94FF0FF3021460022AF
:10450000002500F033F83460284670BD012070BDEE
:1045100082B041F25800C4F20200816841F001010A
:104520008160816801F0010101910199016841F008
:1045300080510160006800F080500090009802B047
:1045400001F0B8B8002848BF7047C1B200F01F00A2
:10455000012202FA00F04EF20012CEF2000242EA0C
:10456000D10121F0030108607047000010B54EF63C
:104570000C5CCEF2000CDCF80030C3F3022E8EF09F
:104580000704042C28BF0424BEF103034FF0FF3EB0
:104590000EFA04F438BF0023A14399400EFA03F346
:1045A0009A43114300F00F0200F160430901043AFD
:1045B00003F564436244002848BF02F10C031970FC
:1045C00010BD00004EF60C51CEF200010A684FF605
:1045D000FF031A4060F30A2242F0806040F0FD7051
:1045E0000860704709F032F801220168C0F8D02253
:1045F000002280F8C822B1F8540040F00100A1F870
:104600005400B1F8540040F002020020A1F85420F8
:104610007047000010B50129044613D011BB607A21
:1046200048B105F0BDFD4EF61050CEF20000016815
:1046300021F006010160D4F8D802BDE8104006F070
:1046400023BE00BFD4F8D80206F0A4FE607A00288A
:1046500008BF10BD4EF61050CEF20000016841F0C8
:104660000601016010BD000080B501F0070C0CEBE5
:104670008C0C00EBCC0C01EB810E0CF1100C00EB60
:10468000CE00090658BF00F5A87C0020002A19BFFB
:10469000CCF808300121ACF8063000218CF80C1061
:1046A00080BD000001EB8102D0F8D83200EBC200DF
:1046B000426A184606F0A8BC01EB8102D0F8D83255
:1046C00000EBC200D0F86421184606F0F1BC0000EF
:1046D00010B5044648B2B0F1FF3F01F0070000EB0F
:1046E000800104EBC10205DD02F5A871002382F808
:1046F000513103E0012302F11001537494F8902228
:104700000870012A04BF022010BD2068012284F82D
:10471000902207F053FA002084F8900210BD0000A8
:10472000B0B50446007901F00F02824284BF012037
:10473000B0BD48B2B0F1FF3F01F0070000EB8001CF
:1047400004EBC10206DD02F5A871002382F85131A5
:1047500004E000BF012302F11001537494F8902289
:104760000025012A8D70087004BF0220B0BD2068AA
:10477000012284F8902207F0B5FA284684F8905276
:10478000B0BD000001F0070101EB810100EBC100A9
:10479000D0F86C017047000070B5064648B2B0F121
:1047A000FF3F01F0070000EB800107DD06EBC104CD
:1047B00004F5A871002584F8515106E006EBC10C00
:1047C00001240CF110018CF8114008700A61022BD1
:1047D000CB7004BF0020087196F89002012804BF36
:1047E000022070BD3068012286F8902207F0C0F8E0
:1047F000002086F8900270BD10B501F0070C0CEB9C
:104800008C0100EBC10E00680EF5A8710024CEF8F3
:104810006421CEF86831CEF86C418EF851418EF8A3
:1048200050C107F0B7FA002010BD000010B50279A2
:10483000044601F00700904284BF012010BD4AB237
:10484000B2F1FF3F0ADD01EB810104EBC10202F589
:10485000A871002382F8513108E000BF00EB80010D
:1048600004EBC102012302F11001537494F8903259
:104870000122012B8A70087004BF022010BD20683D
:1048800084F8902207F06CFA002084F8900210BDA2
:1048900080B501F0070C0CEB8C0100EBC10101F8B5
:1048A00010CF00684FF0010C01F1140781F824C00B
:1048B0004FF0000E87E80C400B6281F801C007F052
:1048C00069FA002080BD00002DE9F04F81B0044658
:1048D000006807F09FFE010420D4410500F1FA832F
:1048E000410400F10984810400F11E84C10400F137
:1048F0002584010500F14884010600F15B848105EF
:1049000000F16884C00540F1F3832068B0F84410DA
:1049100021F48071A0F84410EAE300BF2068B0F9E8
:104920004410B1F1FF3F00F3E38304F5267140F634
:104930000F7B009123E000BFB0F8501094F8502195
:10494000014401EBC201B1F80634B4F856210099D4
:104950006FF39F23C4F86C3107F060FE2068018874
:1049600001EA0B0180310180204600F0DDFD00BF2F
:104970002068B0F94410B1F1FF3F00F3B983B0F8FB
:10498000442012F00F090DD030F929104FEA490ADE
:10499000B1F1FF3F1FFA81F82EDD5FEA0860E7D52D
:1049A00060E100BF0188D2066AD401EA0B0101F57B
:1049B00000410180B0F85010227C084400EBC20096
:1049C000B0F80204616A6FF39F20E06208446062FD
:1049D00020460021FFF766FE207B0028C8D0A06A91
:1049E0000028C5D1207B216840F08000C0B2A1F82A
:1049F0004C0000202073BBE730F81A1040F60F7C03
:104A000001EA0B01803120F81A1009EB890104EB4F
:104A1000C10B9BF85C110BF5A876002900F0828091
:104A20009BF85311022940F08F80B0F85070317814
:104A3000DBF8683107440BF5B4725FEA484507EBD1
:104A4000C10700F19B80B7F8067400256FF39F271C
:104A5000DB1B38BF2B46136040F2A6805FEA48623A
:104A600000F1B28030F8212048F2C00302EA0C02C3
:104A70001A4320F82120002F40F0A780CCE000BF8F
:104A80000A053FF559AF09B2B1F1FF3F3FF770AFEB
:104A9000018801EA0B0180310180B0F8501094F8D0
:104AA0005021014401EBC201B1F806346FF39F239A
:104AB000C4F86C3193B1D4F8641179B1B4F85621CB
:104AC00007F0ACFDD4F86401D4F86C110844C4F8C4
:104AD000640120460021FFF7EFFD206801880A05E8
:104AE0003FF546AF01F44051B1F5405F3FF440AFB0
:104AF000B0F8501000F20642535A6FF39F235352FE
:104B0000D4F860313F2BC0F00782DE068E5A4FEAA0
:104B100053174FF0FF3508BF05EB531746EA8723BD
:104B20007DE200BFB0F850103278014401EBC201C1
:104B3000B1F806746FF39F27002F6DD0DBF8641176
:104B4000BBF8562163E000BF327848F2C00330F86A
:104B5000221001EA0C01194320F8221030F822300B
:104B6000B0F8501000EBC2025B04114416D4B1F847
:104B700006746FF39F2747BB4EE000BFB7F802747F
:104B800000256FF39F27DB1B38BF2B46136021D90D
:104B90005FEA48622DD4B7BB3EE000BFB1F80274B3
:104BA0006FF39F277FBB37E030F8212043F60F7368
:104BB0001A404CF28003A3F500535A4020F82120FC
:104BC0005FEA48627FF54EAF37B3DBF86411BBF89C
:104BD0005A211CE030F8212043F60F731A404CF2A2
:104BE0008003A3F500535A4020F821205FEA486271
:104BF000D1D530F8212048F2C00302EA0C021A4352
:104C000020F8212047B1DBF86411BBF858213B465E
:104C100007F004FD01E000BF0027DBF86C11DBE9C1
:104C2000590239443844CBF86C11CBF864011AB1FD
:104C3000DBF86001B8420BD931782046FFF73CFD24
:104C400040F60F7B5FEA08607FF592AE0AE000BF96
:104C50002068314607F09EF840F60F7B5FEA086057
:104C60007FF586AE206809EB890130F81A2004EB45
:104C7000C10502EA0B0101F5004120F81A10E97C98
:104C800005F11009012923D1297F00294FF00001E6
:104C9000A96200F03B815FEA486100F18780697C8E
:104CA000012900F01D81002940F03081B0F850103A
:104CB00099F80020084400EBC200B0F806146FF326
:104CC0009F21A0F80614B0F8061441F400410FE14A
:104CD0005FEAC8511ED4B0F8502099F80010024481
:104CE00002EBC102B2F80224AB6A6FF39F229B1A57
:104CF0004FF0000738BF3B46AB6240F20981696A5A
:104D0000EB6A114469629918E962494607F042F872
:104D10002EE600BFB0F8507099F800102A4652F8FD
:104D2000286F5FEA486300EBC10C59D40CF2064EC1
:104D30003EF8077000236FF39F27F61B38BF1E460F
:104D4000166040F285805FEA484208D430F821209E
:104D50004CF2800302EA0B021A4320F821202A4673
:104D600012F8341F012940F0A4812B4653F8308FEC
:104D700053E904C153F8046C39443E44E04543F818
:104D80000C1C43F8046C80F00381B8F1000F00F0B4
:104D90005D810027C4461F6017706A7C012A40F0BD
:104DA000FE80B0F850202EF802C075E1697C012920
:104DB00000F0A280002940F0A980B0F8501099F8C6
:104DC0000020084400EBC200B0F802146FF39F21EA
:104DD000A0F80214B0F8021441F4004194E000BFBE
:104DE0000CF2024E3EF8077000236FF39F27F61B6C
:104DF00038BF1E4616604FD95FEA484208D530F8E2
:104E000021204CF2800302EA0B021A4320F82120F1
:104E10002B4613F8341F012940F04B812A4652F8E3
:104E200030CF52E9046152F8048C3944B844B44597
:104E300042F80C1C42F8048C80F0CC804FF0000843
:104E4000BCF1000F83F8008040F0C780BC46C6E08C
:104E50006A7C012A6CD0002A74D1B0F850206244D8
:104E6000B2F802346FF39F23A2F80234B2F802348E
:104E700043F40043A2F80234B0F850003EF800209A
:104E80006FF39F222EF800203EF8002042F40042EB
:104E90002EF8002056E000BF6A7C012A5AD0002A72
:104EA00062D1B0F850203EF802706FF39F272EF8C1
:104EB00002703EF8027047F400472EF80270B0F816
:104EC00050006044B0F806246FF39F22A0F8062437
:104ED000B0F8062442F40042A0F8062444E000BFE3
:104EE000B0F8501099F80020084400EBC2000021EF
:104EF000A0F806140AE000BFB0F8501099F800209E
:104F0000084400EBC2000021A0F8021499F8001038
:104F10002046FFF7C7FB2BE5002B00F07F8003F056
:104F200001078E5A07EB530346EA83237CE000BF58
:104F3000B0F8502000236244A2F80234B0F85000C8
:104F40002EF800302046FFF7ADFB5FEA484012D54F
:104F5000AFE000BFB0F8502000232EF80230B0F8C8
:104F600050006044A0F806342046FFF79BFB5FEA40
:104F7000484040F19E80206899F800104CF2800370
:104F800030F8212002EA0B021A4320F8212090E099
:104F9000A8EB0C021A606A7C012A3FF402AF002AD7
:104FA0007AD1B0F85070BCF13F0F3EF807206FF394
:104FB0009F222EF8072051D35FEACC634FEA5C12A0
:104FC00037F80E304FF0FF3608BF06EB5C1243EAAD
:104FD00082225DE0ACEB0608B446C2F800806A7C31
:104FE000012A2DD0002A5FD1B0F85070BCF13F0FDC
:104FF0003EF807206FF39F222EF807203AD35FEA8E
:10500000CC634FEA5C1237F80E304FF0FF3608BF22
:1050100006EB5C1243EA822242E000BF8B5A48F260
:105020000007CFF6FF773B438B52018843F60F72A0
:1050300011404CF28002A2F580525140018097E469
:10504000B0F850202EF802C02EE000BF00231370ED
:10505000BC466A7C012AA2D1A3E600BFBCF1000FC6
:1050600014D00CF0010237F80E3002EB5C0243EA78
:1050700082220FE0BCF1000F10D00CF0010237F8D3
:105080000E3002EB5C0243EA82220BE037F80E207E
:1050900042F4004227F80E206A8B06E037F80E2013
:1050A00042F4004227F80E202A8B1FFA8CF307F0F7
:1050B0000BFB206899F8001040F63F7330F8212070
:1050C0001A4048F2C003103B5A4020F82120FFF755
:1050D0004FBC00BF2068B0F8441021F48061A0F8F4
:1050E0004410204600F0E2F994F8900201280DD116
:1050F00001B0BDE8F08F00BF2068B0F8441021F483
:105100008041A0F8441001B0BDE8F08F01200025D7
:1051100084F8900225732068002107F0CDFA84F806
:10512000905201B0BDE8F08F2068B0F8441021F42F
:105130000051A0F8441001B0BDE8F08F2068B0F82D
:10514000401021F00401A0F84010B0F8401021F008
:105150000801A0F8401094F8C802012806D10020E8
:1051600084F8C80220460021FFF754FA204600F0D8
:10517000AFF92068B0F8441021F48051A0F8441031
:1051800001B0BDE8F08F00BF2168B1F8400040F0E9
:105190000800A1F84000B1F8440020F40060A1F834
:1051A0004400B1F8400040F004022046A1F840203D
:1051B0000BE000BF2068B0F8441021F08001A0F897
:1051C000441094F8C81299B1204601B0BDE8F04FE0
:1051D00000F0C8B92168B1F8440020F400722046FC
:1051E000A1F8442001B0BDE8F04F00F085B900BF40
:1051F000B0F8401041F00401A0F84010B0F84010A1
:1052000041F00801A0F84010012184F8C812B0F85C
:1052100054003C2101EA900220460121C4F8CC222E
:1052200001B0BDE8F04FFFF7F5B90000F0B581B06F
:10523000002800F00381044690F8910228B900206C
:1052400084F89002204600F0FDF8032084F89102D3
:10525000206806F03DFD2179002900F0DD80A1F1F4
:10526000010E01F0030CBEF1030F4FF0000334D325
:1052700001F0FC0004F1A002012600256F1C02F8D9
:10528000687CAF1C02F8905C02F8407CEF1C04358F
:1052900002F88F6C02F88D3C42E9203342F8783CEA
:1052A00002F8676C02F8653C42E9163342F8503C5C
:1052B00002F83F6C02F83D3C42E90C3342F8283CCE
:1052C00002F8176C02F8187C02F8153C42E9023328
:1052D00042F8A03B8542D1D12B46BCF1000F29D02A
:1052E00003EB830004EBC00501220020BCF1010F99
:1052F0006A742B74E874C5E90800A8621AD05D1CB2
:1053000005EB850604EBC606BCF1020F727435741A
:10531000F074C6E90800B0620CD0981C00EB800263
:1053200004EBC2020123107400205374D074C2E94C
:105330000800906200296FD0BEF1030F4FF0000209
:1053400033D301F0FC0004F5F07100235F1C01F879
:10535000687C9F1C01F8903C01F8407CDF1C043302
:1053600001F88F2C01F88D2C41E9202241F8782C8E
:1053700001F8672C01F8652C41E9162241F8502C00
:1053800001F83F2C01F83D2C41E90C2241F8282C72
:1053900001F8172C01F8187C01F8152C41E90222BC
:1053A00041F8A02B8342D1D11A46BCF1000F33D073
:1053B00002EB820004EBC0010020BCF1010F81F878
:1053C000510181F8502181F85301C1E95800C1F819
:1053D000680121D0511C01EB810304EBC303BCF134
:1053E000020F83F8510183F8501183F85301C3E988
:1053F0005800C3F868010FD0901C00EB800104EB4B
:10540000C101002281F8512181F8500181F8532116
:10541000C1E95822C1F8682194E8070006F04AFC67
:1054200000200121207384F89112A17A012903D16F
:105430002046FFF7D9F8002001B0F0BD012001B0EF
:10544000F0BD000010B596B0044601A8043050210C
:10545000FAF7F7FE206845F60041C4F200018842E1
:1054600002D016B010BD00BF4FF40050019001A84B
:1054700000F02AF9002818BFFCF72AFC41F2580076
:10548000C4F202000168002241F4000101600068DA
:10549000002100F40000009000981420FFF766F847
:1054A0001420FFF74FF816B010BD000010B50446E9
:1054B0004079022818BFFCF70BFCD4F8D802012170
:1054C00005F0FCFED4F8D802BDE8104005F0A8BEF7
:1054D00010B50446407A48B14EF61050CEF20000A6
:1054E000016821F00601016004F05AFED4F8D802E8
:1054F000BDE8104005F0C8BED0F8D80205F0CEBE19
:1055000010B5044690F89002012804BF022010BD97
:10551000012084F890022173206807F0CDF8002064
:1055200084F8900210BD0000D0F8D82200F5267152
:10553000104605F0D9BE000010B5044690F8900260
:10554000012804BF022010BD2068012184F89012B8
:1055500007F050F8206806F0A3FB002084F89002C2
:1055600010BD000010B50446D0F8D80205F012FFB7
:10557000607A002808BF10BD4EF61050CEF2000031
:10558000016841F00601016010BD0000B0F5007F28
:1055900042D0002840F0808047F21400C4F200009E
:1055A00050F8141CC26E01F4C06122F48072B1F58F
:1055B000806FC2662ED150F8141C012262F34A217A
:1055C00040F8141C40F2CC01C2F2000109683222FA
:1055D00051434DF68362C4F21B32A1FB0212910CBF
:1055E0000268520511D54A1C0FD0026852050CD52D
:1055F00059B10268520508D5012906D00268520542
:1056000003D50229A1F10401EAD10068400544BF95
:10561000032070470020704747F21400C4F20000D6
:1056200050F8141CC26E01F4C06142F48072B1F5EE
:10563000806FC266EED150F8141C012262F34A2139
:1056400040F8141C40F2CC01C2F200010968322279
:1056500051434DF68362C4F21B32A1FB0212910C3E
:105660000268520511D54A1C0FD0026852050CD5AC
:1056700059B10268520508D5012906D002685205C1
:1056800003D50229A1F10401EAD10068400544BF15
:1056900003207047BEE700BF47F21400C4F20000C9
:1056A00050F8141C022262F34A2140F8141C002016
:1056B0007047000047F20800C4F20000016841F49E
:1056C00080410160704700002DE9F04182B004463E
:1056D000807841F288060007C4F2020602D4002056
:1056E0002FE000BF56F8300C10F080580BD156F860
:1056F000300C40F0805046F8300C56F8300C00F07A
:1057000080500190019847F20007C4F20007386802
:1057100040F480703860FEF7F5F905463868C0053A
:1057200000F10C81FEF7EEF9401B0228F6D90320A8
:10573000B8F1000F05D156F8301C21F0805146F821
:10574000301C2168CA0717D18A071DD44A0723D401
:105750000A0729D4CA062FD48A0635D44A063BD470
:105760000A0641D4CA0547D48A034DD48A0553D4C6
:105770004A0559D467E000BF3268636822F003022B
:105780001A4332608A07E1D53268A36822F00C021E
:105790001A4332604A07DBD53268E36822F03002F0
:1057A0001A4332600A07D5D53268236922F0C00255
:1057B0001A433260CA06CFD53268636922F4407258
:1057C0001A4332608A06C9D53268A36922F440625E
:1057D0001A4332604A06C3D53268E36922F4405264
:1057E0001A4332600A06BDD53268236A22F4404269
:1057F0001A433260CA05B7D53268636A22F4403270
:105800001A4332608A03B1D57269A36A22F0030297
:105810001A4372618A05ABD53268E36A22F44022EA
:105820001A4332604A050ED53268236B22F44012C7
:105830001A43B3F5801F326005D156F87C2C42F430
:10584000801246F87C2C0A050ED53268636B22F470
:1058500040021A43B3F5800F326005D156F87C2C14
:1058600042F4801246F87C2CCA040ED53268A36B31
:1058700022F040721A43B3F1807F326005D156F8AE
:105880007C2C42F4801246F87C2C8A040ED53268B7
:10589000E36B22F040621A43B3F1006F326005D12E
:1058A00056F87C2C42F4801246F87C2C4A040ED523
:1058B0003268236C22F040621A43B3F1006F326009
:1058C00005D156F87C2C42F4801246F87C2C0A0450
:1058D0000ED53268636C22F040521A43B3F1805FF8
:1058E000326005D156F87C2C42F4803246F87C2C8C
:1058F000CA030ED53268A36C22F040421A43B3F1BA
:10590000804F326005D156F87C2C42F4803246F844
:105910007C2C49030ED57169E26C21F440111143CE
:10592000B2F5001F716105D156F87C1C41F480115D
:1059300046F87C1C02B0BDE8F08100BFB06810F4EE
:10594000407010D0216D88420BD0B068B16820F44F
:10595000407041F48031B160B16821F48031B160B0
:10596000B060C0070CD1B068216D20F440700843CE
:10597000B0600020B8F1000F7FF4E3AEDBE600BFBB
:10598000FEF7C0F8054641F2883700BFB0688007CF
:10599000E9D4FEF7B7F8401BB842F7D9C7E60000D4
:1059A0002DE9F04700286DD042F2000AC4F2020A45
:1059B0000446DAF800000D4600F00F0088420CD2D1
:1059C000DAF8000020F00F002843CAF80000DAF8E7
:1059D000000000F00F00A84254D1216841F20808ED
:1059E000C807C4F2020803D1880740F1D880BDE09F
:1059F000606802283AD0032840D158F8082C920158
:105A000040D5D8F80420D8F8043042F20046C3F359
:105A1000031302F00302D8F804700133C0F2F40655
:105A2000032A04BF41F20026C0F27A06B6FBF3F265
:105A3000D8F80430C7F306277A43C3F3416302273B
:105A400007EB4303B2FBF3F24BF20043C0F2C44353
:105A50009A4261D9D8F8002012F0F00F51D089078E
:105A60005AD5A168002957D14BE000BF58F8081C4F
:105A700089035CBF0120BDE8F08707E058F8081CE7
:105A8000490503D40120BDE8F08700BFD8F8001015
:105A900001F00C0104293FD0D8F8001001F00C01EE
:105AA000082939D0D8F8001001F00C010C2933D1A5
:105AB000D8F80410D8F8042042F20047C2F30312C9
:105AC00001F00301D8F804300132C0F2F4070329D1
:105AD00004BF41F20027C0F27A07B7FBF2F1D8F811
