:020000040800F2
:10000000E8580020ED01000859AB000829790008E4
:1000100055AB000821110008ED1101080000000097
:10002000000000000000000000000000C1BE000849
:10003000A11800080000000001BA000871C90008FA
:10004000070200080702000807020008070200086C
:10005000070200080702000807020008070200085C
:10006000070200080702000807020008211700081D
:1000700031170008411700085117000861170008E0
:10008000070200080702000807020008070200082C
:10009000050B010807020008070200080702000814
:1000A0000702000811CA000807020008070200083A
:1000B0005DCA000807020008070200083D79000831
:1000C0002D7900080702000807020008070200084F
:1000D000070200087DCE000829D00008D5D100080D
:1000E00007020008070200080702000807020008CC
:1000F00007020008070200080702000807020008BC
:1001000007020008070200080702000807020008AB
:10011000070200080702000807020008070200089B
:10012000070200080702000807020008070200088B
:10013000070200080702000807020008070200087B
:10014000070200080702000807020008000000007C
:10015000000000000000000000000000000000009F
:10016000000000000000000000000000070200087E
:10017000070200080702000807020008070200083B
:10018000070200080702000807020008070200082B
:10019000070200080000000007020008070200082C
:1001A000070200080702000807020008070200080B
:1001B00007020008070200080702000807020008FB
:1001C000070200080702000807020008711700086C
:1001D0000702000807020008DFF80CD000F058FB07
:1001E0000048004715190108E858002006488047D4
:1001F00006480047FEE7FEE7FEE7FEE7FEE7FEE70C
:10020000FEE7FEE7FEE7FEE7FDC90008D9010008AA
:1002100040EA01039B0703D009E008C9121F08C088
:10022000042AFAD203E011F8013B00F8013B521E08
:10023000F9D27047D2B201E000F8012B491EFBD27F
:1002400070470022F6E710B513460A4604461946E1
:10025000FFF7F0FF204610BD2DE9FE4F804681EAF2
:100260000300C00F0C46009021F0004123F0004530
:10027000B8EB0200A94105D24046214690461C46F3
:100280000B46024623F00040104347D0270DC7F32A
:100290000A00C3F30A510290401A019040286BDA19
:1002A000C3F3130040F4801B0098924620B1002352
:1002B000D2EB030A63EB0B0B01985946C0F14002E5
:1002C000504600F0D8F906460D4650465946019A68
:1002D00000F0F0F910EB08006141002487EA1152A8
:1002E00084EAE7731A4340D0009A62B3019A012A64
:1002F0004FEA075215DC001B61EB02014FF0004290
:1003000002EA0752CDE90042001C41F58011324655
:100310002B4600F027FA03B0BDE8F08F4046214697
:10032000F9E7001B61EB0201001C41F58013001886
:100330005B412018A2F5001747EB030140EAD57096
:10034000B6196D4111E06D084FEA360645EAC075F1
:100350004FEA0752001B61EB0201001C41F58011BE
:1003600049084FEA30000019514132462B4603B08C
:10037000BDE8F04F00F0E7B90098012240000023EB
:10038000D0EB020263EBE073009821464FEAE07481
:10039000B8EB000061EB0401E9E783F000435BE7A1
:1003A00081F0004158E72DE9FE4F81EA030404F093
:1003B000004421F0004100944FF0000B23F0004373
:1003C00050EA01045ED052EA03045BD0C3F30A543E
:1003D000C1F30A552C44A4F2F3340194A0FB025457
:1003E000C1F3130141F48011C3F3130343F48013E9
:1003F00001FB024400FB034E840A970A44EA81543D
:1004000047EA8357A4FB076802958D0A05FB078519
:100410004FEA932C04FB0C542705029D4FEA065823
:1004200047EA1637B5EB08056EEB070C870E920E00
:1004300047EA811742EA8312A7FB0201B6EB0B01E0
:1004400064EB00042B0D43EA0C335E1844EB1C50A4
:10045000DA465146E7FB0201C5F313044FEA0B33BA
:1004600043EA14534FEA0432019C43EA0603A4F121
:100470000C040294009CCDE900B400F073F903B0C1
:10048000BDE8F08F00200146F9E72DE9F04D81EA43
:10049000030404F0004B21F0004514464FF0000A1D
:1004A00023F0004150EA050220D054EA01021DD099
:1004B000C5F30A570246C5F31303C1F31300C1F392
:1004C0000A5640F4801543F48013A7EB0608101B6E
:1004D000D64608F2FD3873EB050002D308F1010897
:1004E00001E092185B41B8F1000F03DA00200146E9
:1004F000BDE8F08D00204FF48011064684460EE0E2
:10050000171B73EB050705D3121B63EB05030643AB
:100510004CEA010C49084FEA300092185B4150EA5E
:100520000107EDD152EA030012D082EA040083EA07
:100530000501084305D0101BAB4106D20122002360
:1005400006E000224FF0004302E06FF0010253107A
:100550001AEB06004CEB085110EB0A0041EB0B01C3
:10056000BDE8F04D00F0EFB80EB5C10F80EAE070C5
:100570000844CA07002140F233438DE80E000A46C2
:100580000B4600F0EFF803B000BD00F0004230F081
:1005900000400AD0C10D01F56071C0F3160042EAB7
:1005A0000151C208400711437047002001467047BF
:1005B00001F0004330B421F0004150EA010206D0BE
:1005C0000A0DA2F56072C1F31301002A02DC30BCEF
:1005D00000207047440F44EAC104C100E01830BC59
:1005E00000EBC25000F078B830B50B460146002051
:1005F0002022012409E021FA02F59D4205D303FAE5
:1006000002F5491B04FA02F52844151EA2F1010265
:10061000F1DC30BD2DE9F05F0546002092469B4697
:1006200088460646814640241BE028464146474608
:10063000224600F02FF853465A46C01A914110D373
:1006400011461846224600F016F82D1A67EB0108ED
:100650004F4622460120002100F00DF817EB00095B
:100660004E41201EA4F10104DFDC484631462A46F3
:100670004346BDE8F09F202A04DB203A00FA02F14D
:10068000002070479140C2F1200320FA03F3194380
:1006900090407047202A04DB203A21FA02F0002122
:1006A000704721FA02F3D040C2F120029140084382
:1006B00019467047202A06DBCB17203A41FA02F090
:1006C00043EAE07306E041FA02F3D040C2F12002AF
:1006D00091400843194670470029A8BF7047401C45
:1006E000490008BF20F00100704710B4B0FA80FC48
:1006F00000FA0CF050EA010404BF10BC704749B185
:10070000CCF1200421FA04F411FA0CF118BF0121F4
:1007100021430843A3EB0C01CB1D4FEA00614FEAD4
:10072000102042BF002010BC704700EBC3501044A3
:100730000029A4BF10BC7047401C490008BF20F02E
:10074000010010BC704710B5141E73F1000408DAE4
:10075000401C41F1000192185B411A4301D120F085
:10076000010010BD2DE9F04D92469B4611B1B1FA42
:1007700081F202E0B0FA80F220329046FFF77BFF70
:1007800004460F4640EA0A0041EA0B0153465A4626
:10079000084313D0114653EA010019D0C8F14002B2
:1007A0005046FFF777FF05460E46504659464246EB
:1007B000FFF761FF084305D0012004E020463946D9
:1007C000BDE8F08D0020054346EAE0762C43374330
:1007D0000A986305E40AA0EB08000022FD0A44EA37
:1007E00047540A3002D500200146E9E701051019F7
:1007F0006941DDE9084500196941BDE8F04DA2E70E
:10080000C1F30A52C1F3130140F2FF3341F48011E6
:100810009A4202DA00200146704740F233439A427E
:10082000A2F2334202DC5242FFF734BFFFF723BF8C
:1008300030B5041E71F1000404DB4FF00044404267
:1008400064EB0101141E73F1000405DB1C464FF03C
:100850000043524263EB04038B4208BF824230BD27
:1008600030B5041E71F1000404DB4FF00044404237
:1008700064EB0101141E73F1000405DB1C464FF00C
:100880000043524263EB0403994208BF904230BDDB
:10089000064C074D06E0E06840F0010394E80700CD
:1008A00098471034AC42F6D3FFF79AFC3C2F01086E
:1008B0005C2F010870B58C1810F8015B15F0070368
:1008C00001D110F8013B2A1106D110F8012B03E0E9
:1008D00010F8016B01F8016B5B1EF9D12B0705D4F1
:1008E0000023521E0DD401F8013BFAE710F8013B3A
:1008F000CB1A921C03E013F8015B01F8015B521E56
:10090000F9D5A142D8D3002070BD000080B582B0D7
:1009100001900198806A00900098C06D10F0500F0F
:100920004BD1FFE70099C86D40F40070C86500988E
:10093000006800680007002821D5FFE700980068DC
:1009400008F08EF9D0B1FFE700980068C068800415
:10095000002812D4FFE70099C86D20F48070C865A4
:100960000098C06DC004002806D4FFE70099C86D48
:1009700040F00100C865FFE7FFE7FFE719E00098D6
:100980000068C0688007002812D4FFE70099C86D8E
:1009900020F48070C8650098C06DC004002806D49B
:1009A000FFE70099C86D40F00100C865FFE7FFE769
:1009B000FFE7009801F03CFE10E00098C06DC00613
:1009C000002804D5FFE7009801F042FF05E00098F9
:1009D000406D416B01988847FFE7FFE702B080BD9B
:1009E00080B582B001900198806A00900099C86D2E
:1009F00040F04000C8650099086E40F004000866A9
:100A0000009801F025FF02B080BD000080B582B0E3
:100A100001900198806A0090009801F015FF02B0E3
:100A200080BD000080B584B002900298006808F094
:100A3000E7F800900298006808F0EAF800284BD028
:100A4000FFE70098002847D1FFE702980068806818
:100A500000F00D00012809D1FFE70298006808F0B6
:100A60005FF802980168032008600DE00299C86DE4
:100A700040F01000C8650299086E40F00100086659
:100A800001208DF80F002BE003F060F80190FFE7E4
:100A9000029800688068C007E8B1FFE703F056F8E5
:100AA0000199401A032815D3FFE70298006880686F
:100AB000C00770B1FFE70299C86D40F01000C8652B
:100AC0000299086E40F00100086601208DF80F00C1
:100AD00006E0FFE7DCE7FFE700208DF80F00FFE707
:100AE0009DF80F0004B080BD80B586B00490002052
:100AF00002900498006808F08BF8002840F092807B
:100B0000FFE70498006880683F21C8F200010842AE
:100B10000ED0FFE70499C86D40F01000C865049935
:100B2000086E40F00100086601208DF817007DE096
:100B30000498006808F00EF8049801680120B1F1EB
:100B4000A04F01900CD0FFE7049800684FF60071A9
:100B5000CAF6FF710844B0FA80F040090190FFE73F
:100B60000198C10740F20070C5F2000000291CBFC7
:100B700040F20030C5F2000008F00AF84FEA002009
:100B800000281CD5FFE740F26800C2F200000068B0
:100B9000800942F66351C0F23E51A0FB011080096A
:100BA00000EB40010C2000EB81000290FFE702986F
:100BB00020B1FFE7029801380290F8E7FFE702F062
:100BC000C5FF0390FFE7049800680068C00740BBBA
:100BD000FFE70498006808F01BF828B9FFE70498BD
:100BE000006807F0B7FFFFE702F0B0FF0399401A73
:100BF000032815D3FFE7049800680068C00770B9A0
:100C0000FFE70499C86D40F01000C8650499086EAC
:100C100040F00100086601208DF8170006E0FFE7AC
:100C2000D1E7FFE700208DF81700FFE79DF81700D8
:100C300006B080BD80B582B006F0DCFD10F024FF68
:100C400000F02CFA00F096F900F036FB00F036FCCC
:100C500000200190FFE70198052816DCFFE70199C5
:100C600040F2E010C2F20000405C00F04FFC01993D
:100C700041F69C00C2F2000000EBC10000F0EAFA6D
:100C8000FFE7019801300190E5E7002000F03EFC0D
:100C900000F0DAFC0BF004FA40F6A940C0F60000C0
:100CA00010F0ACFB02B080BD80B586B042F6246087
:100CB000C2F20000642110F06BFE002800F00681F3
:100CC000FFE742F65C60C2F2000090F82800C0071F
:100CD000A8B1FFE742F65C60C2F200000068FFF7CF
:100CE00054FC41EC100B684680ED000B42F62D627F
:100CF000C0F601020020062100F028FB08E042F6C1
:100D0000D352C0F601020020062100F01FFBFFE7CE
:100D100042F65C60C2F2000090F82900C007A8B15A
:100D2000FFE742F65C60C2F200004068FFF72DFC6E
:100D300041EC100B684680ED000B42F62D62C0F6C8
:100D400001020621084600F001FB08E042F6DA52F3
:100D5000C0F601020621084600F0F8FAFFE742F665
:100D60005C60C2F2000090F82A00C007A8B1FFE75B
:100D700042F65C60C2F200008068FFF706FC41ECBE
:100D8000100B684680ED000B42F62D62C0F60102A2
:100D90000C20062100F0DAFA08E042F6E152C0F633
:100DA00001020C20062100F0D1FAFFE742F65C6058
:100DB000C2F2000090F82B00C007A8B1FFE742F68E
:100DC0005C60C2F20000C068FFF7DFFB41EC100B73
:100DD000684680ED000B42F62D62C0F6010212203B
:100DE000062100F0B3FA08E042F6E852C0F601022C
:100DF0001220062100F0AAFAFFE742F65C60C2F278
:100E0000000090F82C00C007A8B1FFE742F65C6034
:100E1000C2F200000069FFF7B8FB41EC100B684616
:100E200080ED000B42F62D62C0F60102182006216B
:100E300000F08CFA08E042F6EF52C0F601021820EA
:100E4000062100F083FAFFE742F65C60C2F2000080
:100E500090F82D00C007A8B1FFE742F65C60C2F22F
:100E600000004069FFF791FB41EC100B684680EDF4
:100E7000000B42F62D62C0F601021E20062100F092
:100E800065FA08E042F6CC52C0F601021E200621A7
:100E900000F05CFAFFE740F2C211C2F200018B7968
:100EA000C8790A7A91F809C0694641F2BA3EC1F898
:100EB0000CE0C1F808C04A60086042F6F652C0F67D
:100EC00001022420192100F041FAFFE742F62860D0
:100ED000C2F200000A2110F05BFD58B1FFE70120CB
:100EE0000E2100F07DF842F65C60C2F200000BF0CB
:100EF00005F8FFE742F62C60C2F200004FF4FA71E9
:100F000010F046FD98B3FFE70020049000F0FEFAD1
:100F10000498059005A800F03DFBC0B1FFE70598D7
:100F2000FFF733FB41EC100B53EC102B42F61D6125
:100F3000C0F60101662010F0F7FD059842F65C61ED
:100F4000C2F200014861012081F82D000EE042F656
:100F50000561C0F60101682010F0E6FD42F65C6113
:100F6000C2F20001002081F82D00FFE7FFE706B084
:100F700080BD000080B58AB00020029009900890E2
:100F8000079006900590049040F20040C4F60000DF
:100F900003900421019108F0ADF8019A0299039899
:100FA00004920122059206910791089104A908F084
:100FB00023F80AB080BD000080B540F20040C4F6BE
:100FC0000000042108F096F880BD000080B540F2D2
:100FD0000040C4F60000042108F02AF980BD00009A
:100FE00080B582B08DF80700ADF804109DF80700B9
:100FF000012850D1FFE741F69A00C2F200000078C4
:10100000F0B9FFE7BDF8042041F69800C2F20000F5
:10101000018811440180B0F90000B0F57A7F0EDD3F
:10102000FFE741F69801C2F200014FF47A700880A0
:1010300041F69A01C2F2000101200870FFE7FFE7C4
:1010400041F69A00C2F200000078D8B1FFE7BDF87F
:10105000042041F69800C2F200000188891A01803C
:10106000B0F9000000280CDCFFE741F69801C2F25D
:1010700000010020088041F69A01C2F200010870C8
:10108000FFE7FFE741F69800C2F200000188012067
:1010900000F01AF8FFE7FFE702B080BD80B582B02C
:1010A00009F0BEFC40F60040C4F20000019008F0D8
:1010B0009BFB0198102108F053FB0198002108F0D8
:1010C000F5FD02B080BD000080B582B08DF807004C
:1010D000ADF804109DF8070001281BD1FFE7BDF80B
:1010E0000400B0F57A7F05DDFFE74FF47A70ADF8C4
:1010F0000400FFE7BDF8040041F69801C2F20001C8
:101100000880BDF8041040F60040C4F2000008F06A
:10111000CDFDFFE7FFE702B080BD00007047000093
:10112000FFE7FEE784B08DF80F000291ADF80620CE
:101130009DF80F000146009123281DD80099DFE893
:1011400001F012131415161B1B1B1B1B1B1B1B1B57
:101150001B1B1B1B1B1B1B1B1B1B1B1B1B1B1B1BDF
:101160001B1B1718191A08E007E006E005E004E069
:1011700003E002E001E000E0FFE7002004B0704778
:101180000020704780B582B041F6DC20C2F200003A
:10119000009040F66071C2F20001002201920CF052
:1011A00061FB009840F26071C2F200010CF040FB5C
:1011B000019802B080BD000080B584B00390029118
:1011C000039941F6DC20C2F2000001900CF030FBE4
:1011D00001980CF0D7FA002004B080BD83B00290D3
:1011E00001918DF8032000208DF802009DF9020086
:1011F00003B0704780B586B00490ADF80E100020A3
:101200008DF80D0041F6DC20C2F20000D0F8BC02DF
:1012100002900298D0F8140220B1FFE701208DF867
:10122000170013E00499BDF80E2041F6DC20C2F24D
:10123000000001900CF016FB01980CF001FC8DF8F9
:101240000D009DF80D008DF81700FFE79DF81700C1
:1012500006B080BD80B582B00190019942F20820AD
:10126000C2F20000486001997F200870019801785F
:1012700009F00EF802B080BD80B582B001908DF803
:1012800003109DF80300802804DBFFE77F208DF822
:101290000300FFE79DF80300B0F1FF3F04DCFFE728
:1012A00000208DF80300FFE701989DF8031008F077
:1012B000EFFF02B080BD000080B582B06846002319
:1012C000036001204FF4E1311A460FF0BDFC41F2FA
:1012D000E120C0F6000010F091F802B080BD0000DF
:1012E00080B582B040F23030C2F200000F2110F021
:1012F0004FFB40B3FFE740F2E811C2F20001D1F822
:101300001801D1F81C1188421CD0FFE740F2E81206
:10131000C2F200020192D2F81801232100FB012140
:1013200091F8222001200FF05BFE0199D1F81801FD
:10133000D1F82021431C93FBF2F000FB1230C1F8DE
:101340001801FFE7FFE702B080BD000081B080B563
:1013500099B01B9318901791169217981A2803DBCF
:10136000FFE719201790FFE71BA814901798411C5E
:10137000169A149B0DF1360010F078FC1590159814
:1013800020B1FFE715980138029002E0002002909A
:10139000FFE70298159015981799884203D9FFE73F
:1013A00017981590FFE700208DF8140010218DF894
:1013B00015101899090A8DF8161018998DF817103C
:1013C0008DF818001599013149088DF819109DF80C
:1013D000191049008DF81A100490FFE704989DF841
:1013E0001A10884215D2FFE7049B0DF1360000EB7E
:1013F00043014A7805A901EB4303DA71049A10F816
:10140000120001EB42010872FFE7049801300490DA
:10141000E4E79DF81A00C11D05A8019000F048F905
:10142000019AADF80E009DF80F009DF81A101144B6
:10143000C871BDF80E009DF81A101144087240F2F0
:10144000E812C2F20002D2F81811D2F81C01D2F848
:101450002021431C93FBF2F000FB1230884201D1A3
:10146000FFE726E09DF81A00093040F2E812C2F2C8
:1014700000020092D2F81C31232103FB012383F8E0
:101480002200D2F81C0100FB01209DF81A1001F186
:10149000090205A9FEF7BCFE0099D1F81C01D1F89C
:1014A0002021431C93FBF2F000FB1230C1F81C0119
:1014B000FFE719B0BDE8804001B0704780B58AB041
:1014C00000200190099008900790069005900490E4
:1014D000022007F0EFFC40F20040C4F60000039049
:1014E0004021029107F0FEFD01990398029A0492AF
:1014F0000122059206910791089104A907F07CFD4D
:101500000299039807F08CFE0AB080BD80B582B0C6
:101510008DF807009DF80700082801DBFFE736E09B
:1015200040F2DC10C2F2000000689DF8071088420B
:1015300001D1FFE72BE09DF8071042F6C430C0F65A
:101540000100405C8DF8060069460A20086042F2FE
:101550000820C2F20000E0210DF10602012302F092
:10156000B7FC8DF805009DF8050040B1FFE742F695
:101570007761C0F60101682010F0D6FA07E09DF807
:10158000070040F2DC11C2F200010860FFE702B080
:1015900080BD000080B588B006900022ADF816200E
:1015A000ADF814208DF8132069460A2088600220C7
:1015B000486005A8086042F20820C2F200009021AD
:1015C000012302F0AFFD8DF813009DF8130058B110
:1015D000FFE742F6AC61C0F60101682010F0A4FA02
:1015E00000208DF81F0028E09DF814009DF81510CC
:1015F000000140EA1110ADF81600BDF91600B0F573
:10160000006F07DBFFE7BDF8160040F47040ADF84F
:101610001600FFE7BDF9160000EE100AB8EEC00A8A
:101620009FED081A20EE010A8DED030A0398069932
:10163000086001208DF81F00FFE79DF81F0008B02B
:1016400080BD00BF0000803D80B586B04AF26000DA
:10165000ADF8140000208DF8130069464FF47A703D
:1016600088600220486005A8086042F20820C2F2A3
:101670000000902101231A4602F09AFE8DF8130013
:101680009DF8130058B1FFE742F6D461C0F601019E
:10169000682010F049FA00208DF8170003E00120BF
:1016A0008DF81700FFE79DF8170006B080BD000019
:1016B00083B00290ADF80610FF208DF805008DF87C
:1016C0000400FFE7BDF80600411EADF80610F8B1B2
:1016D000FFE79DF8050002994A1C029209784840EC
:1016E000ADF802009DF80400BDF8022042F6CC31AE
:1016F000C0F60101895C48408DF80500BDF8021074
:1017000042F6CC40C0F60100405C8DF80400D9E7F9
:101710009DF805109DF8040040EA012003B07047D1
:1017200080B541F6C870C2F2000001F06FFE80BDC6
:1017300080B542F22800C2F2000001F067FE80BDD1
:1017400080B542F28800C2F2000001F05FFE80BD69
:1017500080B542F2E800C2F2000001F057FE80BD01
:1017600080B542F24810C2F2000001F04FFE80BD89
:1017700080B542F2A810C2F2000001F047FE80BD21
:1017800084B003900398006840F20741C4F202015C
:10179000884206D8FFE740F60000C4F2020000903D
:1017A00005E040F62000C4F202000090FFE7009838
:1017B00002900398007808384CF6CD41CCF6CC4125
:1017C000A0FB011000090190029803994A6C22F0D5
:1017D000030210448864039940F68000C4F20200BA
:1017E000C864019800F01F01012088400399086532
:1017F00004B0704782B00190019800790090009980
:1018000040F6FC00C4F2020000EB8100019948653B
:10181000019940F64010C4F2020088650098013832
:1018200000F01F01012088400199C86502B070478F
:1018300084B003900291019200930398C16C006DF3
:1018400048600398406D28B1FFE70398816DC06D33
:101850004860FFE70398016C406C00F01F02012014
:101860009040486000980399096848600398806830
:10187000102809D1FFE70198039909688860029848
:1018800003990968C86008E00298039909688860AC
:10189000019803990968C860FFE704B07047000029
:1018A0007047000083B080B583B00793069205911E
:1018B000029005A80090029A009B41F28D70C2F23E
:1018C00000004FF4807110F0D1F901900198B0F54B
:1018D000807F04D9FFE74FF480700190FFE7BDF8E7
:1018E000041041F28D70C2F20000FFF783FC03B0D8
:1018F000BDE8804003B0704781B0EFF3108072B64E
:101900000090FFE7FEE7000080B584B047F29050FA
:10191000C1F6FF700068039047F29450C1F6FF7063
:101920000068029047F29850C1F6FF70006801907D
:101930000199039808440390039888B1FFE703983E
:1019400040F2A811C2F2000100910231082207F012
:10195000A9F8009902981231042207F0A3F8FFE7D2
:1019600004B080BD80B586B0049003910020019042
:10197000FFE7049890F85800012804D1FFE70220FF
:101980008DF817005AE00499012081F85800FFE70C
:10199000FFE70498FFF746F88DF80B009DF80B0061
:1019A000D8BBFFE70498C06D40F0020020F48850D7
:1019B0000499C86504980068039907F043FAFFE7A3
:1019C0000498006807F00CF9F0B1FFE701980130C6
:1019D000019001984DF60261C0F20401884212D3D1
:1019E000FFE70498C06D40F0100020F00200049959
:1019F000C865FFE70499002081F85800FFE701203F
:101A00008DF817001AE0DBE70498C06D40F0010084
:101A100020F002000499C86505E00499C86D40F003
:101A20001000C865FFE7FFE70499002081F858001F
:101A3000FFE79DF80B008DF81700FFE79DF81700F2
:101A400006B080BD80B5AEB02C902B9100208DF8F3
:101A5000AB002B98006808B1FFE7FFE7FFE72C9881
:101A600090F85800012804D1FFE702208DF8B70054
:101A70005DE12C99012081F85800FFE7FFE7002085
:101A8000259026902C980068B0F1A04F06D1FFE772
:101A900040F20010C5F200000E9015E02C9800688E
:101AA00040F20041C5F20001884207D1FFE740F251
:101AB0000050C5F200000E900C9003E000200E9044
:101AC0000C90FFE70C98FFE70E9878B9FFE72C9988
:101AD000C86D40F02000C865FFE72C99002081F810
:101AE0005800FFE701208DF8B70020E10E9807F0BD
:101AF000AFF80D902C98006807F0AAF8002840F085
:101B00000281FFE70D98002840F0FD80FFE72C9848
:101B100001680120B1F1A04F0B900CD0FFE72C9889
:101B200000684FF60071CAF6FF710844B0FA80F001
:101B300040090B90FFE70B98C10740F20070C5F217
:101B4000000000291CBF40F20030C5F200002990BF
:101B50002B980068002872D0FFE72998806820F44D
:101B600060402B9949682C9A92F8382041EA42311A
:101B70000843299988602C9801680120B1F1A04F91
:101B80000A900CD0FFE72C9800684FF60071CAF657
:101B9000FF710844B0FA80F040090A90FFE70A9804
:101BA000C10740F20070C5F2000000291CBF40F2DE
:101BB0000030C5F2000040F20031C5F20001884259
:101BC00010D1FFE74FF0A04007F02AF8089040F24C
:101BD0000010C5F2000007F023F8014608980843FA
:101BE00009901BE040F20040C5F2000007F018F831
:101BF000069040F20050C5F2000007F011F80146CF
:101C000006980843079040F20060C5F2000007F014
:101C100007F80146079808430990FFE7099868B953
:101C2000FFE72998806840F61F7188432B9A116856
:101C300092681143084329998860FFE762E0299977
:101C4000886820F4604088602C9801680120B1F118
:101C5000A04F05900CD0FFE72C9800684FF600715C
:101C6000CAF6FF710844B0FA80F040090590FFE71A
:101C70000598C10740F20070C5F2000000291CBFA2
:101C800040F20030C5F2000040F20031C5F2000120
:101C9000884210D1FFE74FF0A04006F0C1FF03904B
:101CA00040F20010C5F2000006F0BAFF01460398AA
:101CB000084304901BE040F20040C5F2000006F02B
:101CC000AFFF019040F20050C5F2000006F0A8FFFF
:101CD000014601980843029040F20060C5F20000FE
:101CE00006F09EFF0146029808430490FFE704981F
:101CF00038B9FFE72999886840F61F7290438860D9
:101D0000FFE7FFE708E02C99C86D40F02000C865A8
:101D100001208DF8AB00FFE7FFE72C99002081F848
:101D20005800FFE79DF8AB008DF8B700FFE79DF87E
:101D3000B7002EB080BD000080B5C4B024902391C0
:101D400000208DF88B001F902398C0680021C4F2FA
:101D50007F01884201D0FFE700E0FFE7FFE724981A
:101D600090F85800012805D1FFE702208DF8970070
:101D700000F059BC2499012081F85800FFE7FFE7E3
:101D80002498006806F05CFF002840F03884FFE7E4
:101D90002498006823990A68496806F06DFF249822
:101DA000006806F04DFF1E902498006806F010FFB2
:101DB0001D901E98002840F0B881FFE71D9800286C
:101DC00040F0B381FFE723988068B0F1004F0ED157
:101DD000FFE72498006823990968002206F078FF3D
:101DE000249800684FF0004107F01EF80CE024989A
:101DF0000068239A1168926806F06AFF24980068C8
:101E0000002107F011F8FFE7239840692499096839
:101E1000C96801F018018908884021902398006959
:101E200004281CD0FFE72498006823990A680969F0
:101E3000219B06F09FFF24980068239A11699269FC
:101E400006F0CAFF24980068239A1169127F013AAC
:101E5000B2FA82F25209520606F0AAFF64E124980F
:101E60000068002106F0A4FE400348B9FFE724986B
:101E70000068002106F09CFEC0F384601C9018E00E
:101E800024980068002106F093FE90FAA0F042909A
:101E9000429820B9FFE720208DF80F0105E0429815
:101EA000B0FA80F08DF80F01FFE79DF80F011C904C
:101EB000FFE71C981B9023980068400330B9FFE7A8
:101EC00023980068C0F384601A9015E02398006896
:101ED00090FAA0F04090409820B9FFE720208DF8BC
:101EE000070105E04098B0FA80F08DF80701FFE7A0
:101EF0009DF807011A90FFE71B981A99884207D1AD
:101F0000FFE7249800680022114606F079FFFFE7FA
:101F100024980068012106F04BFE400348B9FFE712
:101F200024980068012106F043FEC0F384601990F4
:101F300018E024980068012106F03AFE90FAA0F01B
:101F40003E903E9820B9FFE720208DF8FF0005E085
:101F50003E98B0FA80F08DF8FF00FFE79DF8FF0093
:101F60001990FFE71998189023980068400330B93A
:101F7000FFE723980068C0F38460179015E023986A
:101F8000006890FAA0F03C903C9820B9FFE7202030
:101F90008DF8F70005E03C98B0FA80F08DF8F70076
:101FA000FFE79DF8F7001790FFE718981799884208
:101FB00007D1FFE7249800680121002206F020FFE6
:101FC000FFE724980068022106F0F2FD400348B9BB
:101FD000FFE724980068022106F0EAFDC0F3846060
:101FE000169018E024980068022106F0E1FD90FAAE
:101FF000A0F03A903A9820B9FFE720208DF8EF0042
:1020000005E03A98B0FA80F08DF8EF00FFE79DF810
:10201000EF001690FFE7169815902398006840038C
:1020200030B9FFE723980068C0F38460149015E08E
:102030002398006890FAA0F03890389820B9FFE70C
:1020400020208DF8E70005E03898B0FA80F08DF890
:10205000E700FFE79DF8E7001490FFE71598149953
:10206000884207D1FFE7249800680221002206F089
:10207000C7FEFFE724980068032106F099FD40039E
:1020800048B9FFE724980068032106F091FDC0F3EA
:102090008460139018E024980068032106F088FDFE
:1020A00090FAA0F03690369820B9FFE720208DF8FE
:1020B000DF0005E03698B0FA80F08DF8DF00FFE72A
:1020C0009DF8DF001390FFE71398129023980068A3
:1020D000400330B9FFE723980068C0F38460119093
:1020E00015E02398006890FAA0F03490349820B955
:1020F000FFE720208DF8D70005E03498B0FA80F093
:102100008DF8D700FFE79DF8D7001190FFE71298F0
:102110001199884207D1FFE7249800680321002223
:1021200006F06EFEFFE7FFE7FFE72498006806F081
:102130006FFD002840F04481FFE724980068239A4F
:102140001168D26806F0E0FD2398C0680021C4F24F
:102150007F01884240F03381FFE7249800681090A7
:1021600023980068400330B9FFE723980068C0F364
:1021700084600F9015E02398006890FAA0F03290E8
:10218000329820B9FFE720208DF8CF0005E0329883
:10219000B0FA80F08DF8CF00FFE79DF8CF000F90E8
:1021A000FFE70F98013000F01F0009287DD8FFE7F6
:1021B00023980068400330B9FFE723980068C0F314
:1021C00084600E9015E02398006890FAA0F030909B
:1021D000309820B9FFE720208DF8C70005E030983F
:1021E000B0FA80F08DF8C700FFE79DF8C7000E90A9
:1021F000FFE70E98013000F01F0080060D90239835
:102200000068400330B9FFE723980068C0F384609A
:102210000C9015E02398006890FAA0F02E902E986C
:1022200020B9FFE720208DF8BF0005E02E98B0FA16
:1022300080F08DF8BF00FFE79DF8BF000C90FFE72E
:102240000D980C99013101F01F02012191400843C2
:102250000B9023980068400330B9FFE7239800688B
:10226000C0F384600A9015E02398006890FAA0F00B
:102270002C902C9820B9FFE720208DF8B70005E0BE
:102280002C98B0FA80F08DF8B700FFE79DF8B70002
:102290000A90FFE70B980A99013101F01F0101EB49
:1022A000410140EA0150099082E023980068400310
:1022B00030B9FFE723980068C0F38460089015E008
:1022C0002398006890FAA0F02A902A9820B9FFE796
:1022D00020208DF8AF0005E02A98B0FA80F08DF844
:1022E000AF00FFE79DF8AF000890FFE708980130C6
:1022F00000F01F008006079023980068400330B963
:10230000FFE723980068C0F38460069015E02398E7
:10231000006890FAA0F02890289820B9FFE72020C4
:102320008DF8A70005E02898B0FA80F08DF8A70096
:10233000FFE79DF8A7000690FFE70798069901318F
:1023400001F01F0201219140084305902398006885
:10235000400330B9FFE723980068C0F3846004901D
:1023600015E02398006890FAA0F02690269820B9EE
:10237000FFE720208DF89F0005E02698B0FA80F056
:102380008DF89F00FFE79DF89F000490FFE70599F7
:102390000498013000F01F0000EB40020020CFF64F
:1023A000206000EB0250084340F000700990FFE706
:1023B00010980999239A926806F08AFCFFE7FFE7D4
:1023C0002398408848F20801084200F01781FFE78F
:1023D000249801680120B1F1A04F03900CD0FFE7D1
:1023E000249800684FF60071CAF6FF710844B0FAED
:1023F00080F040090390FFE70398C10740F20070A6
:10240000C5F2000000291CBF40F20030C5F20000F8
:1024100006F0BEFB20902398006840F20001CCF249
:102420002131884208D0FFE7239800681021C9F2C3
:10243000C00188425AD1FFE79DF8820000060028BB
:1024400054D4FFE724980068B0F1A04F09D0FFE70B
:102450002498006840F20061C5F20001884244D12E
:10246000FFE7249801680120B1F1A04F02900CD041
:10247000FFE7249800684FF60071CAF6FF71084420
:10248000B0FA80F040090290FFE70298C10740F2DD
:102490000070C5F2000000291CBF40F20030C5F2F8
:1024A0000000209941F4000106F056FC40F268005B
:1024B000C2F2000000684FEA901042F66351C0F289
:1024C0003E51A0FB01104FEA901000EB40014FF08D
:1024D0000C0000EB81001F90FFE71F9820B1FFE781
:1024E0001F9801381F90F8E7FFE786E023980068FF
:1024F0000021CCF2527188423ED1FFE79DF8830063
:10250000C007C8BBFFE72498006840F20011C5F27D
:102510000001884209D1FFE72498006840F2005189
:10252000C5F20001884226D0FFE724980168012007
:10253000B1F1A04F01900CD0FFE7249800684FF64E
:102540000071CAF6FF710844B0FA80F040090190AA
:10255000FFE70198C10740F20070C5F200000029B2
:102560001CBF40F20030C5F20000209941F080719C
:1025700006F0F2FBFFE73FE0239800680021CCF66D
:102580008431884236D1FFE79DF88200400600285A
:1025900030D4FFE72498006840F20011C5F2000132
:1025A000884226D0FFE7249801680120B1F1A04FAE
:1025B00000900CD0FFE7249800684FF60071CAF62F
:1025C000FF710844B0FA80F040090090FFE70098DE
:1025D000C10740F20070C5F2000000291CBF40F2A4
:1025E0000030C5F20000209941F4800106F0B4FBF0
:1025F000FFE700E0FFE7FFE7FFE7FFE708E02499D8
:10260000C86D40F02000C86501208DF88B00FFE701
:10261000FFE72499002081F85800FFE79DF88B0020
:102620008DF89700FFE79DF8970044B080BD00004B
:1026300080B596B0159015980068B0F1A04F1FD1E5
:10264000FFE742F69060C2F20000079000F18801B7
:1026500014916C30139041F28870C2F20000129015
:1026600014981399129A0EF0DDFF0798139991EDC3
:10267000030A9FED741A20EE010A80ED010ADFE0E3
:102680001598006840F20011C5F20001884220D17F
:10269000FFE742F69060C2F20000069000F572710A
:1026A000119100F56B70109041F28970C2F2000038
:1026B0000F90119810990F9A0EF0B4FF0698109988
:1026C00091ED030A9FED5F1A20EE010A80ED020AE8
:1026D000B5E01598006840F20041C5F2000188425B
:1026E00020D1FFE742F69060C2F20000059000F5AD
:1026F000E1610E9100F2EC600D9041F28A70C2F23D
:1027000000000C900E980D990C9A0EF08BFF059816
:102710000D9991ED030A9FED4B1A20EE010A80ED11
:10272000030A8BE01598006840F20051C5F20001E1
:10273000884258D1FFE7FEF749FC00200B90FFE7E5
:102740000B98000918281DD8FFE70B9B42F69061F3
:10275000C2F2000101F6482030F8232001EB4303C8
:1027600041F2087C23F80C200B9A00EB8200408891
:1027700001EB420141F2E8328852FFE70B98013049
:102780000B90DDE742F69061C2F20001049141F244
:102790000870084401F62C21039141F28B72C2F2B9
:1027A000000201920EF03EFF019A049941F2E830D6
:1027B000084441F2CC33194402910EF033FF029ADF
:1027C0000399049892ED030A9FED1E1A20EE010A68
:1027D00080ED000A91ED030A20EE010A80ED040A63
:1027E000FEF7EAFB29E01598006840F20061C5F2A7
:1027F0000001884220D1FFE742F69060C2F200005B
:1028000041F2A80101440A9141F28C01014409916D
:1028100041F28C71C2F200010891099991ED030A0D
:102820009FED081A20EE010A80ED050A0A98099921
:10283000089A0EF0F7FEFFE7FFE7FFE7FFE7FFE785
:1028400016B080BDEBE2523A81B0009001B0704703
:1028500081B0009001B0704780B58EB00C90002020
:102860008DF82F0007900C9820B9FFE701208DF814
:102870003700DCE10C98406940B1FFE70C9890F814
:102880002400012801D1FFE7FFE7FFE70C98C06DA6
:1028900050B9FFE70C9800F0CFF90C9900200866BA
:1028A0000C9981F85800FFE70C98006806F0A0F931
:1028B00028B1FFE70C98006806F040F9FFE70C9894
:1028C000006806F0B5F9F0B9FFE70C98006806F06B
:1028D0004FF940F26800C2F200000068800942F639
:1028E0006351C0F23E51A0FB01108109022000EBB0
:1028F00041000790FFE7079820B1FFE707980138EC
:102900000790F8E7FFE70C98006806F091F970B9B6
:10291000FFE70C99C86D40F01000C8650C99086E6F
:1029200040F00100086601208DF82F00FFE70C98A9
:10293000006806F085F909900C98C06DC006002863
:1029400000F16781FFE70998002840F06281FFE706
:102950000C98C06D40F0020020F480700C99C8659E
:102960000C98006806F054F900287CD1FFE70C9819
:1029700001680120B1F1A04F06900CD0FFE70C9840
:1029800000684FF60071CAF6FF710844B0FA80F093
:1029900040090690FFE70698C10740F20070C5F2B3
:1029A000000000291CBF40F20030C5F2000040F2D8
:1029B0000031C5F20001884210D1FFE74FF0A0407E
:1029C00006F026F9049040F20010C5F2000006F06F
:1029D0001FF901460498084305901BE040F20040AF
:1029E000C5F2000006F014F9029040F20050C5F262
:1029F000000006F00DF9014602980843039040F2EA
:102A00000060C5F2000006F003F901460398084390
:102A10000590FFE7059828BBFFE70C9801680120A7
:102A2000B1F1A04F01900CD0FFE70C9800684FF671
:102A30000071CAF6FF710844B0FA80F040090190B5
:102A4000FFE70198C10740F20070C5F200000029BD
:102A50001CBF40F20030C5F200000C99496806F036
:102A60006DF9FFE7FFE70C994A7FC86B40EA4230F7
:102A70008A68CB681843104391F8241040EA01405B
:102A80000A900C9890F8240001280BD1FFE70C98CD
:102A9000816A0020CFF6FE7000EB41410A9808439E
:102AA0000A90FFE70C98C06A50B1FFE70C99C86A1A
:102AB000096B00F4787001430A9808430A90FFE715
:102AC0000C980068C06844F20701CFF6F071084026
:102AD0000A9908430C990968C8600C980068006955
:102AE00020F040600C9A1168526B104308610C98FA
:102AF000006806F06DF808900998002868D1FFE793
:102B00000898002864D1FFE70C99087F91F83810E5
:102B1000800340EA41000A900C980068C06844F2C3
:102B2000020188430A9908430C990968C8600C9807
:102B30000069A0B1FFE70C980168086940F4803093
:102B400008610C980068D0F8C00043F6FF71884314
:102B50000C9A116812691043C1F8C00011E00C987A
:102B60000168086920F4803008610C980068D0F88A
:102B7000C00043F6FF7188430C990968C1F8C00092
:102B8000FFE70C9890F84000012819D1FFE70C9856
:102B90000068006940F2FD7120EA01020C9B19688F
:102BA000586CD3F848E0D3F84CC040EA0E0040EA35
:102BB0000C001B6D1843104340F00100086106E053
:102BC0000C980168086920F001000861FFE7FFE741
:102BD0000C98406901280CD1FFE70C980068006B45
:102BE00020F00F000C9A1168126A013A1043086332
:102BF00006E00C980168086B20F00F000863FFE7FF
:102C00000C98C06D40F0010020F002000C99C865DE
:102C100008E00C99C86D40F01000C86501208DF8DF
:102C20002F00FFE79DF82F008DF83700FFE79DF894
:102C300037000EB080BD000080B5B2B031900020EA
:102C400030902F902E902D902C9017A85421FDF7A6
:102C5000F8FA31980068B0F1A04F71D1FFE74FF456
:102C6000004017904FF00050289017A803F080F90B
:102C700018B1FFE7FEF740FEFFE740F23430C2F242
:102C800000000168013101600068012810D1FFE7F0
:102C9000FFE741F24C00C4F20200016841F4005128
:102CA0000160006800F4005016901698FFE7FFE7F7
:102CB000FFE741F24C00C4F20200016841F001015B
:102CC0000160006800F0010015901598FFE70120F1
:102CD0002C9003202D9000200B902E904FF09040D0
:102CE0002CA900F069FD0B9941F6C870C2F20000F2
:102CF0000C900822C4F20202026005224260816048
:102D0000C160802101614FF4807141614FF48061A5
:102D100081612021C1614FF48051016200F022FCE9
:102D200018B1FFE7FEF7E8FDFFE7FFE7319841F64E
:102D3000C871C2F20001416531988862FFE7F2E193
:102D40003198006840F20011C5F20001884272D14A
:102D5000FFE74FF4004017904FF00050289017A85D
:102D600003F006F918B1FFE7FEF7C6FDFFE740F2F2
:102D70003430C2F2000001680131016000680128AE
:102D800010D1FFE7FFE741F24C00C4F202000168F6
:102D900041F400510160006800F400501490149850
:102DA000FFE7FFE7FFE741F24C00C4F202000168D1
:102DB00041F001010160006800F0010013901398D8
:102DC000FFE7802009902C9003202D900020089090
:102DD0002E904FF090402CA900F0EEFC089A099933
:102DE00042F22800C2F200000A901C23C4F202033F
:102DF0000360242343608260C26001614FF48071EC
:102E000041614FF4806181612021C1614FF48051A3
:102E1000016200F0A7FB18B1FFE7FEF76DFDFFE7C9
:102E2000FFE7319842F22801C2F200014165319872
:102E30008862FFE776E13198006840F20041C5F210
:102E40000001884273D1FFE74FF4803017904FF0B4
:102E50000040299017A803F08BF818B1FFE7FEF7A0
:102E60004BFDFFE740F23830C2F20000016801314B
:102E700001600068012810D1FFE7FFE741F24C0034
:102E8000C4F20200016841F480410160006800F46E
:102E9000804012901298FFE7FFE7FFE741F24C00F5
:102EA000C4F20200016841F002010160006800F014
:102EB000020011901198FFE702202C9003202D9022
:102EC000002006902E9040F20040C4F600002CA98D
:102ED00000F072FC069942F28800C2F200000790EE
:102EE0003022C4F202020260252242608160C16089
:102EF000802101614FF4807141614FF480618161F3
:102F00002021C1614FF48051016200F02BFB18B108
:102F1000FFE7FEF7F1FCFFE7FFE7319842F2880197
:102F2000C2F20001416531988862FFE7F9E031980B
:102F3000006840F20051C5F20001884274D1FFE7F9
:102F40004FF4803017904FF00040299017A803F0FD
:102F50000FF818B1FFE7FEF7CFFCFFE740F238307B
:102F6000C2F200000168013101600068012810D13F
:102F7000FFE7FFE741F24C00C4F20200016841F4B0
:102F800080410160006800F4804010901098FFE7D5
:102F9000FFE7FFE741F24C00C4F20200016841F094
:102FA00002010160006800F002000F900F98FFE737
:102FB0004FF440402C9003202D90002004902E9040
:102FC00040F20040C4F600002CA900F0F5FB049983
:102FD00042F2E800C2F2000005904422C4F202026C
:102FE0000260262242608160C160802101614FF44D
:102FF000807141614FF4806181612021C1614FF492
:103000008051016200F0AEFA18B1FFE7FEF774FCE0
:10301000FFE7FFE7319842F2E801C2F200014165A3
:1030200031988862FFE77BE03198006840F20061E8
:10303000C5F20001884272D1FFE74FF4803017904B
:103040004FF00040299017A802F092FF18B1FFE757
:10305000FEF752FCFFE740F23830C2F20000016890
:10306000013101600068012810D1FFE7FFE741F25C
:103070004C00C4F20200016841F480410160006824
:1030800000F480400E900E98FFE7FFE7FFE741F263
:103090004C00C4F20200016841F0010101600068C7
:1030A00000F001000D900D98FFE74FF48070029042
:1030B0002C9003202D90002001902E904FF09040F6
:1030C0002CA900F079FB019A029942F24810C2F251
:1030D000000003905823C4F20203036027234360D7
:1030E0008260C2608022026141614FF4806181612F
:1030F0002021C1614FF48051016200F033FA18B110
:10310000FFE7FEF7F9FBFFE7FFE7319842F24811CE
:10311000C2F20001416531988862FFE7FFE7FFE7EF
:10312000FFE7FFE7FFE732B080BD000080B58AB05F
:10313000089007910692089801680120B1F1A04F0C
:1031400003900CD0FFE7089800684FF60071CAF6AC
:10315000FF710844B0FA80F040090390FFE703983C
:10316000C10740F20070C5F2000000291CBF40F208
:103170000030C5F2000005F013FD049008980068C7
:1031800005F05EFD002840F0CA80FFE7FFE70898E1
:1031900090F85800012804D1FFE702208DF827009D
:1031A000C6E00899012081F85800FFE7FFE708987A
:1031B000006840F20061C5F2000188420CD0FFE7D0
:1031C000049848B1FFE70498052805D0FFE7049864
:1031D000092840F09980FFE70898FDF785FC8DF8F5
:1031E00017009DF81700002840F08680FFE7089838
:1031F000C06D40F4807040F6016188430899C8654D
:103200000898006840F20011C5F20001884204D11C
:10321000FFE74FF0A040029015E00898006840F2E8
:103220000051C5F20001884206D1FFE740F200409C
:10323000C5F20000019003E0089800680190FFE7E4
:1032400001980290FFE7029808990968884203D024
:10325000FFE7049830B9FFE70899C86D20F48010A3
:10326000C865FFE70898C06DC004002806D5FFE7D1
:103270000899086E20F00600086603E0089900200F
:103280000866FFE70898416D40F60D10C0F6000093
:10329000C8620898416D40F60D20C0F60000086332
:1032A0000898416D40F6E110C0F6000048630898A8
:1032B00001681C200860FFE70899002081F8580089
:1032C000FFE708980168486840F0100048600898D7
:1032D0000168C86840F00100C86008980168406D46
:1032E0004031079A069B00F0E9F98DF8170008981D
:1032F000006805F0DFFC06E0FFE70899002081F890
:103300005800FFE7FFE709E001208DF81700FFE70D
:103310000899002081F85800FFE7FFE703E002204A
:103320008DF81700FFE79DF817008DF82700FFE7DD
:103330009DF827000AB080BD80B582B001900020C2
:103340008DF80300019890F82500022811D0FFE7BE
:1033500001990420C8630199012081F82500FFE745
:103360000199002081F82400FFE701208DF8030077
:103370003FE001980168086820F00E00086001989D
:103380000168086820F0010008600198816C0868F5
:1033900020F4807008600198016C406C00F01F02FE
:1033A0000120904048600198C16C006D4860019810
:1033B000406D58B1FFE70198416D086820F48070B6
:1033C00008600198816DC06D4860FFE70199012098
:1033D00081F82500FFE70199002081F82400FFE72C
:1033E0000198806B20B1FFE70198816B8847FFE768
:1033F000FFE79DF8030002B080BD000081B000909F
:10340000009890F8250001B07047000080B584B0A6
:1034100003900398006C00680290039800680068AD
:10342000019002980399496C01F01F01C8404007C0
:10343000002825D5FFE79DF80400400700281FD588
:10344000FFE70398006800688006002807D4FFE7BC
:1034500003980168086820F004000860FFE70398FB
:10346000016C406C00F01F020420904048600398FB
:10347000006B20B1FFE70398016B8847FFE76EE020
:1034800002980399496C01F01F01C8408007002889
:103490002FD5FFE79DF804008007002829D5FFE716
:1034A000039800680068800600280BD4FFE70398A3
:1034B0000168086820F00A0008600399012081F87B
:1034C0002500FFE70398016C406C00F01F0202200A
:1034D00090404860FFE70399002081F82400FFE74F
:1034E0000398C06A20B1FFE70398C16A8847FFE7E5
:1034F00034E002980399496C01F01F01C8400007AD
:10350000002829D5FFE79DF804000007002823D5EF
:10351000FFE703980168086820F00E000860039830
:10352000026C406C00F01F01012000FA01F15160B3
:103530000399C863039981F82500FFE703990020E8
:1035400081F82400FFE70398406B20B1FFE7039860
:10355000416B8847FFE700E0FFE7FFE7FFE704B0C4
:1035600080BD000080B584B00290029820B9FFE7CA
:1035700001208DF80F009CE00298006840F207419E
:10358000C4F20201884218D8FFE7029908684FF692
:10359000F872CBF6FD7210444CF6CD42CCF6CC421C
:1035A000A0FB02026FF0030000EA92004864029957
:1035B0000020C4F20200086418E0029908684FF67F
:1035C000F832CBF6FD7210444CF6CD42CCF6CC422C
:1035D000A0FB02026FF0030000EA92004864029927
:1035E00040F20040C4F202000864FFE702990220A2
:1035F00081F825000298006800680190019847F65C
:10360000F0718843019002998868D1F80CC00B6969
:103610004A6940EA0C00184310438A691043CA699A
:103620001043096A014301980843019001980299E7
:10363000096808600298FEF7A3F802988068B0F560
:10364000804F04D1FFE7029900204860FFE702990C
:103650000879896C08600298C16C006D4860029816
:10366000406888B1FFE70298406804280CD8FFE75B
:103670000298FEF7BFF80298416D0020086002989A
:10368000816DC06D486007E002990020486502998D
:1036900088650299C865FFE702990020C863029A0D
:1036A000012182F82510029981F824008DF80F007D
:1036B000FFE79DF80F0004B080BD000080B586B024
:1036C000049003910292019300208DF80300FFE71C
:1036D000049890F82400012804D1FFE702208DF817
:1036E000170065E00499012081F82400FFE7FFE757
:1036F000049890F8250001284BD1FFE70499022097
:1037000081F8250004990020C863049801680868BE
:1037100020F00100086004980399029A019BFEF7CB
:1037200087F80498006B38B1FFE7049801680868CF
:1037300040F00E0008600CE004980168086820F072
:103740000400086004980168086840F00A000860F6
:10375000FFE70498806C0068C003002807D5FFE7E6
:103760000498816C086840F480700860FFE7049852
:10377000406D38B1FFE70498416D086840F48070EF
:103780000860FFE704980168086840F001000860DD
:1037900009E0FFE70499002081F82400FFE70220F8
:1037A0008DF80300FFE79DF803008DF81700FFE791
:1037B0009DF8170006B080BD8BB00A9009910020DB
:1037C0000890FFE7099800680899C840002800F0B1
:1037D000A581FFE709980068089A012191400840F7
:1037E00007900798002800F09581FFE70998406846
:1037F00000F00300012807D0FFE70998406800F0B7
:10380000030002282FD1FFE70A98806806900898E5
:103810004100032000FA01F10698884306900998B8
:10382000C0680899490000FA01F10698084306901B
:1038300006980A9988600A984068069008990120BD
:1038400000FA01F106988843069009984068C0F391
:103850000010089900FA01F10698084306900698AE
:103860000A994860FFE70998406800F003000328C0
:1038700018D0FFE70A98C068069008984100032016
:1038800000FA01F106988843069009988068089923
:10389000490000FA01F106980843069006980A9933
:1038A000C860FFE70998406800F00300022826D1AD
:1038B000FFE70A9808996FF0030202EA51010844F1
:1038C000006A0690089800F0070081000F2000FAB7
:1038D00001F106988843069009980069089901F05B
:1038E0000701890000FA01F106980843069006983E
:1038F0000A99089B02EA530211440862FFE70A98FA
:103900000068069008984100032000FA01F106982B
:10391000884306900998406800F003000899490020
:1039200000FA01F106980843069006980A99086083
:10393000099880798007002800F0EB80FFE7FFE717
:1039400041F26000C4F20200016841F0010101602F
:10395000006800F0010005900598FFE7089820F046
:1039600003000821C4F2010140580690089800F0B5
:10397000030081000F2000FA01F1069888430690A9
:103980000A98B0F1904F03D1FFE70020049042E085
:103990000A9840F20041C4F60001884203D1FFE7D3
:1039A0000120039034E00A9840F60001C4F60001BB
:1039B000884203D1FFE70220029026E00A9840F6F1
:1039C0000041C4F60001884203D1FFE703200190C3
:1039D00018E00A9841F20001C4F60001884203D1C0
:1039E000FFE7042000900AE00A9941F20042C4F681
:1039F00000020620914208BF05200090FFE70098D2
:103A00000190FFE701980290FFE702980390FFE71B
:103A100003980490FFE70498089901F003018900D6
:103A200000FA01F10698084306900698089921F0DB
:103A300003010822C4F20102885040F20840C4F297
:103A40000100006806900799069888430690099837
:103A50008079C006002805D5FFE707990698084336
:103A60000690FFE7069840F20841C4F201010860A1
:103A700040F20C40C4F201000068069007990698D5
:103A800088430690099880798006002805D5FFE7CD
:103A90000799069808430690FFE7069840F20C4104
:103AA000C4F20101086040F20440C4F20100006861
:103AB00006900799069888430690099880798007B0
:103AC000002805D5FFE70799069808430690FFE709
:103AD000069840F20441C4F20101086040F200403F
:103AE000C4F2010000680690079906988843069082
:103AF00009988079C00728B1FFE70799069808431D
:103B00000690FFE7069840F20041C4F20101086008
:103B1000FFE7FFE708980130089053E60BB07047C5
:103B200082B00190ADF802108DF801209DF80100DF
:103B300028B1FFE7BDF802000199886104E0BDF8F3
:103B4000020001998862FFE702B0704744F6E00086
:103B5000C2F200000068704783B0019000910198A4
:103B600090F8410020283BD1FFE7FFE7019890F84B
:103B70004000012804D1FFE702208DF80B0033E05C
:103B80000199012081F84000FFE7FFE70199242017
:103B900081F8410001980168086820F00100086080
:103BA00001980168086820F480500860009A019824
:103BB000016808681043086001980168086840F0CF
:103BC000010008600199202081F84100FFE7019978
:103BD000002081F84000FFE700208DF80B0003E093
:103BE00002208DF80B00FFE79DF80B0003B0704733
:103BF00084B002900191029890F84100202840D1B1
:103C0000FFE7FFE7029890F84000012804D1FFE7A2
:103C100002208DF80F0038E00299012081F8400061
:103C2000FFE7FFE70299242081F84100029801682C
:103C3000086820F0010008600298006800680090A1
:103C4000009820F4706000900199009840EA0120EB
:103C50000090009802990968086002980168086855
:103C600040F0010008600299202081F84100FFE740
:103C70000299002081F84000FFE700208DF80F0036
:103C800003E002208DF80F00FFE79DF80F0004B05D
:103C90007047000081B0009001B0704782B0019081
:103CA0008DF80310ADF8002002B0704780B584B0E5
:103CB0000390039800688069029003980068006888
:103CC00001909DF80900C00790B1FFE79DF804102E
:103CD0000020B0EBD11F0BD0FFE70399486C40F0F8
:103CE00001004864039801684FF48070C861FFE7E1
:103CF0009DF8090000F004010020B0EB910F12D0F4
:103D0000FFE79DF804100020B0EBD11F0BD0FFE7B8
:103D10000399486C40F008004864039801684FF428
:103D20008060C861FFE79DF8090000F002010020F3
:103D3000B0EB510F12D0FFE79DF804100020B0EB5C
:103D4000D11F0BD0FFE70399486C40F00200486494
:103D5000039801684FF40070C861FFE70398406C56
:103D600000909DF8000010F00B0F05D0FFE70398BE
:103D7000009903F025FFFFE704B080BD80B584B053
:103D800003900398006880690290039800680068B7
:103D900001900398406B30B1FFE70398436B0299A1
:103DA000019A9847FFE704B080BD000081B0009001
:103DB00001B0704780B582B00090009820B9FFE74D
:103DC00001208DF807007BE0009890F8410040B991
:103DD000FFE70099002081F84000009800F022FCE5
:103DE000FFE70099242081F84100009801680868E5
:103DF00020F00100086000980168406820F07060C1
:103E0000086100980168886820F400408860009884
:103E1000C068012807D1FFE700980168806840F476
:103E20000040886006E000980168806840F4044023
:103E30008860FFE70098C068022807D1FFE7009874
:103E40000168486840F40060486006E00098016836
:103E5000486820F400604860FFE7009801684868FF
:103E600048F20002C0F20022104348600098016846
:103E7000C86820F40040C860009A1168106953694E
:103E80009269184340EA0220C860009A1168D0691C
:103E9000126A1043086000980168086840F0010049
:103EA0000860009900204864009A202182F841109F
:103EB00000990863009981F842008DF80700FFE738
:103EC0009DF8070002B080BD81B0009001B070473E
:103ED00080B588B0DDF828C00690ADF816100492C1
:103EE000ADF80E30069890F84100202840F011817E
:103EF000FFE7FFE7069890F84000012804D1FFE7AC
:103F000002208DF81F0008E10699012081F8400089
:103F1000FFE7FFE7FFF71AFE0290069802996A464C
:103F200011604FF400410122192304F0B1FC20B1CB
:103F3000FFE701208DF81F00EFE00699212081F8AE
:103F400041000699102081F842000699002048643B
:103F50000499069A5162BDF80E10069A5185069989
:103F600048630698408DB0F5807F07D3FFE7069938
:103F7000FF2008854FF08070019007E00698408D83
:103F8000069908854FF000700190FFE70698008DB4
:103F900010B3FFE706980168406A007888620699C6
:103FA000486A013048620699488D0138488506996B
:103FB000088D013808850698BDF81610028D01326B
:103FC000019BEE4642F2000CC8F2000CCEF800C095
:103FD000D2B204F009FC0FE00698BDF8161090F874
:103FE0002820019BEE4642F2000CC8F2000CCEF8ED
:103FF00000C004F0F9FBFFE7FFE70698408D0028BA
:104000005ED0FFE706980A99029A04F0F5FC20B109
:10401000FFE701208DF81F007FE006980168406AE5
:10402000007888620699486A013048620699488D8E
:10403000013848850699088D013808850698408D15
:10404000E8B3FFE70698008DC8BBFFE706980A9B18
:1040500002996A4611608021002204F019FC20B107
:10406000FFE701208DF81F0057E00698408DB0F55E
:10407000807F11D3FFE70699FF2008850698BDF8D9
:10408000161090F82820EC460023CCF800304FF0B2
:10409000807304F0A9FB11E00698408D069908850D
:1040A0000698BDF8161090F82820EC460023CCF8AE
:1040B00000304FF0007304F097FBFFE7FFE79CE749
:1040C00006980A99029A04F045FC20B1FFE7012006
:1040D0008DF81F0021E0069801682020C86106992C
:1040E0000A6851684EF60003CFF60063194051602C
:1040F000069981F841000699002081F84200FFE707
:104100000699002081F84000FFE700208DF81F008D
:1041100003E002208DF81F00FFE79DF81F0008B0A4
:1041200080BD000010B588B084460C980B98DDF86F
:1041300028E0CDF818C0ADF81610ADF81420ADF891
:104140001230ADF81000069890F84100202840F099
:104150002681FFE70A9820B1FFE7BDF8100040B9BB
:10416000FFE706994FF40070486401208DF81F00A6
:1041700019E1FFE7069890F84000012804D1FFE715
:1041800002208DF81F000EE10699012081F8400001
:10419000FFE7FFE7FFF7DAFC0390069803996A460A
:1041A00011604FF400410122192304F071FB20B18A
:1041B000FFE701208DF81F00F5E00699222081F825
:1041C00041000699402081F8420006990020486489
:1041D0000A99069A5162BDF81010069A51850699FF
:1041E00048630698BDF81610BDF81420BDF81230CB
:1041F000DDF830C0039CEE46CEF80440CEF800C097
:1042000004F00EF950B1FFE7FFE70699002081F8AE
:104210004000FFE701208DF81F00C4E00698408DA4
:10422000B0F5807F14D3FFE70699FF200885069834
:10423000BDF8161090F82820EC4642F20043C8F270
:104240000003CCF800304FF0807304F0CDFA14E096
:104250000698408D069908850698BDF8161090F8C6
:104260002820EC4642F20043C8F20003CCF80030AC
:104270004FF0007304F0B8FAFFE7FFE706980C9BD5
:1042800003996A4611600421002204F001FB20B169
:10429000FFE701208DF81F0085E006980068406A5E
:1042A0000699496A08700699486A01304862069979
:1042B000088D013808850699488D0138488506988B
:1042C000408DE8B3FFE70698008DC8BBFFE706986E
:1042D0000C9B03996A4611608021002204F0D8FAF1
:1042E00020B1FFE701208DF81F005CE00698408DAB
:1042F000B0F5807F11D3FFE70699FF200885069867
:10430000BDF8161090F82820EC460023CCF80030B9
:104310004FF0807304F068FA11E00698408D06991A
:1043200008850698BDF8161090F82820EC46002362
:10433000CCF800304FF0007304F056FAFFE7FFE7C7
:10434000FFE70698408D002898D1FFE706980C9962
:10435000039A04F0FFFA20B1FFE701208DF81F0057
:1043600021E0069801682020C86106990A68516812
:104370004EF60003CFF6006319405160069981F8AC
:1043800041000699002081F84200FFE706990020CD
:1043900081F84000FFE700208DF81F0003E00220B5
:1043A0008DF81F00FFE79DF81F0008B010BD00004A
:1043B00010B588B084460C980B98DDF828E0CDF84D
:1043C00018C0ADF81610ADF81420ADF81230ADF8E5
:1043D0001000069890F84100202840F01B81FFE76C
:1043E0000A9820B1FFE7BDF8100040B9FFE7069931
:1043F0004FF40070486401208DF81F000EE1FFE7C4
:10440000069890F84000012804D1FFE702208DF8BB
:104410001F0003E10699012081F84000FFE7FFE754
:10442000FFF794FB0390069803996A4611604FF4D6
:1044300000410122192304F02BFA20B1FFE70120EB
:104440008DF81F00EAE00699212081F841000699C5
:10445000402081F842000699002048640A99069A93
:104460005162BDF81010069A518506994863069866
:10447000BDF81610BDF81420BDF81230DDF830C0BC
:10448000039CEE46CEF80440CEF800C004F028F8B5
:1044900050B1FFE7FFE70699002081F84000FFE7F1
:1044A00001208DF81F00B9E00698408DB0F5807F9F
:1044B00011D3FFE70699FF2008850698BDF816106E
:1044C00090F82820EC460023CCF800304FF08073A1
:1044D00004F08AF911E00698408D0699088506983F
:1044E000BDF8161090F82820EC460023CCF80030D8
:1044F0004FF0007304F078F9FFE7FFE706980C9996
:10450000039A04F079FA20B1FFE701208DF81F002B
:1045100084E006980168406A007888620699486AD3
:10452000013048620699488D013848850699088D02
:10453000013808850698408DE8B3FFE70698008D9E
:10454000C8BBFFE706980C9B03996A46116080215F
:10455000002204F09DF920B1FFE701208DF81F0033
:104560005CE00698408DB0F5807F11D3FFE7069997
:10457000FF2008850698BDF8161090F82820EC4614
:104580000023CCF800304FF0807304F02DF911E0D7
:104590000698408D069908850698BDF8161090F883
:1045A0002820EC460023CCF800304FF0007304F0D4
:1045B0001BF9FFE7FFE7FFE70698408D00289DD134
:1045C000FFE706980C99039A04F0C4F920B1FFE7BD
:1045D00001208DF81F0021E0069801682020C861A5
:1045E00006990A6851684EF60003CFF60063194039
:1045F0005160069981F841000699002081F8420037
:10460000FFE70699002081F84000FFE700208DF8C1
:104610001F0003E002208DF81F00FFE79DF81F0038
:1046200008B010BD80B5AEB02D9000202C902B901E
:104630002A902990289013A85421FBF702FE2D9868
:10464000006845F20041C4F20001884240F0D58084
:10465000FFE7402013904FF480501A9013A801F008
:1046600087FC18B1FFE7FDF747F9FFE7FFE741F2E5
:104670004C00C4F20200016841F0010101600068D1
:1046800000F0010012901298FFE7FFE741F24C00A2
:10469000C4F20200016841F002010160006800F00C
:1046A000020011901198FFE7FFE741F25800C4F2B1
:1046B0000200016841F400110160006800F400107C
:1046C00010901098FFE7FFE741F24C00C4F202009F
:1046D000016841F001010160006800F001000F90E5
:1046E0000F98FFE7FFE741F24C00C4F202000168B7
:1046F00041F002010160006800F002000E900E9887
:10470000FFE74FF40040099028900120069029907F
:10471000002104912B912A90042005902C904FF0B9
:1047200090400B9028A90C91FFF746F8049B059840
:10473000069A0C994FF0800CCDF81CC0CDF8A0C0A3
:1047400029922B932A922C9040F20040C4F600004C
:104750000890FFF731F8069A0B98BDF8A010FFF704
:10476000DFF9069A0898BDF8A010FFF7D9F9079A63
:1047700008980C992D9BD3F800C0DCF8003043F466
:104780000053CCF800302D9BD3F800C0DCF800308B
:1047900023F40053CCF80030289212220A92299276
:1047A000FFF70AF8099B0A9A0B980C99289329920B
:1047B000FFF702F8FFE741F25800C4F20200016877
:1047C00041F400110160006800F400100D900D9894
:1047D000FFE71F20019000220292114600F0B8F876
:1047E000019800F0ABF8029A20200390114600F0E7
:1047F000AFF8039800F0A2F8FFE72EB080BD0000EC
:1048000081B0009001B0704781B0009001B0704756
:1048100040F22430C2F20000026844F6E001C2F225
:1048200000010868104408607047000080B582B03D
:1048300000208DF8070042F20001C4F2020108686E
:1048400040F480700860032000F09AF80F2000F018
:104850000DF820B1FFE701208DF8070002E000F01D
:1048600049F8FFE79DF8070002B080BD80B582B02F
:10487000019000208DF8030040F22430C2F20000C5
:10488000006878B3FFE740F26800C2F200000068F9
:1048900040F22431C2F200010A684FF47A71B1FB90
:1048A000F2F1B0FBF1F002F0F5FCB0B9FFE70198CE
:1048B0000F280DD8FFE701994FF0FF30002200F0DC
:1048C00047F8019840F22831C2F20001086003E085
:1048D00001208DF80300FFE703E001208DF80300BD
:1048E000FFE703E001208DF80300FFE79DF80300D8
:1048F00002B080BD80B582B0FFE741F26000C4F233
:104900000200016841F001010160006800F001004F
:1049100001900198FFE7FFE741F25800C4F202005E
:10492000016841F080510160006800F08050009003
:104930000098FFE701F012FB02B080BD80B582B0A5
:104940008DF807009DF907000CF052FC02B080BD05
:1049500080B586B08DF81700049103920CF090FC9E
:1049600002909DF91700019002980499039A06F0AD
:10497000F5F8014601980CF09BFC06B080BD0000E4
:1049800080B582B0019001980CF0F8FC02B080BDB7
:1049900082B0019001980068009001990120C1F84F
:1049A000D0020199002081F8C802009AB2F8541090
:1049B00041F00101A2F85410009AB2F8541041F0ED
:1049C0000201A2F8541002B07047000080B584B014
:1049D00003908DF80B109DF80B000146019120B15A
:1049E000FFE70198012815D027E00398407A58B1D5
:1049F000FFE707F0C1FF4EF61051CEF20001086844
:104A000020F006000860FFE70398D0F8D80209F00C
:104A10004BFE12E00398D0F8D80209F02BFF039860
:104A2000407A48B1FFE74EF61051CEF20001086817
:104A300040F006000860FFE7FFE704B080BD00001B
:104A400084B00390ADF80A10ADF808200193BDF8CA
:104A50000A00000600280CD5FFE70398BDF80A10ED
:104A600001F0070101EB810100EBC1001030009063
:104A70000AE00398BDF80A1001EB810100EBC100C8
:104A800000F5A8700090FFE7BDF8080038B9FFE70F
:104A900000990020087301980099C8800AE00099E5
:104AA00001200873019800990881BDF8060000995B
:104AB0004881FFE7002004B07047000080B582B055
:104AC00001908DF80310019AD2F8D8029DF80310D6
:104AD00001EB810302EBC302526A09F09DFB02B0B5
:104AE00080BD000080B582B001908DF80310019A5E
:104AF000D2F8D8029DF8031001EB810302EBC30248
:104B0000D2F8642109F02EFC02B080BD80B584B0DB
:104B100002908DF807109DF80700000600280FD5B9
:104B2000FFE702989DF8071001F0070101EB8101F2
:104B300000EBC100103000900099012048700FE098
:104B400002989DF8071001F0070101EB810100EBCD
:104B5000C10000F5A8700090009900204870FFE7A0
:104B60009DF8070000F0070000990870FFE7029821
:104B700090F89002012804D1FFE702208DF80F0081
:104B800014E00299012081F89002FFE7FFE7029804
:104B9000006800990AF0D2FDFFE70299002081F831
:104BA0009002FFE700208DF80F00FFE79DF80F004F
:104BB00004B080BD80B584B002908DF807109DF8D8
:104BC000070000F00F0002990979884204D9FFE735
:104BD00001208DF80F004DE09DF807000006002829
:104BE0000FD5FFE702989DF8071001F0070101EBD0
:104BF000810100EBC1001030009000990120487045
:104C00000FE002989DF8071001F0070101EB810108
:104C100000EBC10000F5A8700090009900204870DA
:104C2000FFE70099002088709DF8070000F007005A
:104C300000990870FFE7029890F89002012804D1CB
:104C4000FFE702208DF80F0014E00299012081F89F
:104C50009002FFE7FFE70298006800990AF04EFF14
:104C6000FFE70299002081F89002FFE700208DF80D
:104C70000F00FFE79DF80F0004B080BD80B586B03F
:104C800005900491ADF80E20BDF80E0040040028F8
:104C900076D5FFE705980068B0F8500004990978C8
:104CA00000EBC100059909680844B0F802046FF3ED
:104CB0009F20ADF80C0004988069BDF80C10884264
:104CC00007D3FFE7BDF80C2004998869801A886132
:104CD00003E0049900208861FFE704988069F8B92F
:104CE000FFE7FFE7059800680499097830F821008C
:104CF0004BF68F710840ADF80A00BDF80A0080F449
:104D00000050ADF80A00BDF80A0048F280010843DF
:104D100005990968049A127821F82200FFE7FFE755
:104D2000BDF80E00400600281BD5FFE7FFE7FFE7B0
:104D3000059800680499097830F8210048F68F71C9
:104D40000840ADF80800BDF8080048F2C00108436B
:104D500005990968049A127821F82200FFE7FFE715
:104D6000FFE7BDF80C0050B1FFE705980068049A12
:104D700051691289BDF80C300BF0D6FEFFE775E0E3
:104D800005980068B0F850000499097800EBC1005C
:104D9000059909680844B0F806046FF39F20ADF840
:104DA0000C0004988069BDF80C10884207D3FFE717
:104DB000BDF80C2004998869801A886103E0049981
:104DC00000208861FFE704988069F8B9FFE7FFE7F2
:104DD000059800680499097830F821004BF68F7126
:104DE0000840ADF80600BDF8060080F40050ADF8AC
:104DF0000600BDF8060048F28001084305990968DD
:104E0000049A127821F82200FFE7FFE7BDF80E00B0
:104E1000400600281BD4FFE7FFE7FFE7059800687E
:104E20000499097830F8210048F68F710840ADF8F0
:104E30000400BDF8040048F2C00108430599096860
:104E4000049A127821F82200FFE7FFE7FFE7BDF898
:104E50000C0050B1FFE705980068049A5169528927
:104E6000BDF80C300BF060FEFFE7FFE7BDF80C006B
:104E700006B080BD80B5A6B025902491ADF88E20F7
:104E8000BDF88E004006002840F1BA81FFE7259862
:104E90000068B0F850002499097800EBC10025990A
:104EA00009680844B0F802046FF39F20ADF886004B
:104EB00024988069BDF88610884207D9FFE7BDF8BD
:104EC000862024998869801A886103E0249900204B
:104ED0008861FFE724988069002840F0B080FFE7F0
:104EE000FFE72498407808BBFFE7FFE725980068B4
:104EF000209025980068B0F8501020980844209021
:104F000020982499097800EBC10000F202401F901C
:104F1000FFE71F9908886FF39F2008801F99088872
:104F200040F400400880FFE7FFE71DE02498407848
:104F3000012818D1FFE7FFE7259800681D90259804
:104F40000068B0F850101D9808441D901D982499D1
:104F5000097800EBC10000F202401C901C9900206F
:104F60000880FFE7FFE7FFE7FFE7FFE72598006816
:104F70001B902498407808BBFFE7FFE7259800685E
:104F8000199025980068B0F85010199808441990A5
:104F900019982499097800EBC10000F20640189096
:104FA000FFE7189908886FF39F20088018990888F0
:104FB00040F400400880FFE7FFE718E024984078BD
:104FC000012813D1FFE725980068B0F850101B980E
:104FD00008441B901B982499097800EBC10000F24B
:104FE00006401A901A9900200880FFE7FFE7FFE7C4
:104FF000259824990978FFF761FDBDF88E004004DB
:1050000000281BD5FFE7FFE7FFE7259800682499F4
:10501000097830F8210048F68F710840ADF85A0041
:10502000BDF85A004CF28001084325990968249A7A
:10503000127821F82200FFE7FFE7FFE7DFE0BDF885
:105040008E00400400281BD5FFE7FFE7FFE7259807
:1050500000682499097830F8210048F68F710840DB
:10506000ADF85800BDF858004CF28001084325996E
:105070000968249A127821F82200FFE7FFE7FFE78A
:10508000249890F82400012840F0B880FFE7BDF88C
:1050900086202499486910444861BDF886202499E7
:1050A000C8691044C86124980169006A884209D31C
:1050B000FFE7249800692290229A2499086A801AAE
:1050C000086216E02498006A40B9FFE7BDF8860040
:1050D00022902499002081F8240009E024990020DE
:1050E00081F824002499096A229124990862FFE733
:1050F000FFE7FFE724984078002856D1FFE7FFE755
:1051000025980068159025980068B0F850101598FB
:105110000844159015982499097800EBC10000F215
:1051200002401490FFE7149908886FF39F200880CD
:1051300022983F2817D3FFE7FFE7229840091390F2
:105140009DF88800C00620B9FFE713980138139036
:10515000FFE7139A1499088840EA822040F400403F
:105160000880FFE71EE0229830B9FFE7149908880D
:1051700040F40040088014E0FFE7229840081390B4
:105180009DF88800C00720B1FFE713980130139005
:10519000FFE7139A1499088840EA82200880FFE705
:1051A000FFE7FFE7FFE7FFE71DE0249840780128CD
:1051B00018D1FFE7FFE7259800681290259800684E
:1051C000B0F8501012980844129012982499097857
:1051D00000EBC10000F20240119022981199088062
:1051E000FFE7FFE7FFE7FFE725980068249A51698A
:1051F0001289BDF888300BF0E9FCFFE7FFE7B6E164
:1052000025980068B0F850002499097800EBC10097
:10521000259909680844B0F806046FF39F20ADF89B
:10522000860024988069BDF88610884207D3FFE77E
:10523000BDF8862024998869801A886103E0249942
:1052400000208861FFE724988069002840F0B08042
:10525000FFE7FFE72498407808BBFFE7FFE72598C2
:105260000068109025980068B0F850101098084415
:10527000109010982499097800EBC10000F20240C8
:105280000F90FFE70F9908886FF39F2008800F9910
:10529000088840F400400880FFE7FFE71DE02498FD
:1052A0004078012818D1FFE7FFE7259800680D90A6
:1052B00025980068B0F850100D9808440D900D988E
:1052C0002499097800EBC10000F202400C900C997F
:1052D00000200880FFE7FFE7FFE7FFE7FFE72598EB
:1052E00000680B902498407808BBFFE7FFE72598FB
:1052F0000068099025980068B0F850100998084493
:10530000099009982499097800EBC10000F2064041
:105310000890FFE7089908886FF39F200880089994
:10532000088840F400400880FFE7FFE718E0249871
:105330004078012813D1FFE725980068B0F8501095
:105340000B9808440B900B982499097800EBC10046
:1053500000F206400A900A9900200880FFE7FFE764
:10536000FFE7259824990978FFF7A8FBBDF88E0080
:10537000400400281BD4FFE7FFE7FFE725980068FB
:105380002499097830F8210048F68F710840ADF86B
:105390001A00BDF81A004CF28001084325990968EB
:1053A000249A127821F82200FFE7FFE7FFE7DDE00B
:1053B000BDF88E00400400281BD4FFE7FFE7FFE79D
:1053C000259800682499097830F8210048F68F71F3
:1053D0000840ADF81800BDF818004CF280010843F1
:1053E00025990968249A127821F82200FFE7FFE73F
:1053F000FFE7249890F82400012840F0B680FFE7EA
:10540000BDF886202499486910444861BDF886207B
:105410002499C8691044C86124980169006A8842C7
:1054200009D3FFE7249800692290229A2499086AF8
:10543000801A086216E02498006A40B9FFE7BDF8B8
:10544000860022902499002081F8240009E0249805
:10545000006A2290249900200862249981F824008F
:10546000FFE7FFE7FFE7259800680590249840785C
:10547000002856D1FFE7FFE725980068039025989C
:105480000068B0F8501003980844039003982499DA
:10549000097800EBC10000F206400290FFE7029994
:1054A00008886FF39F20088022983F2817D3FFE7D2
:1054B000FFE72298400901909DF88800C00620B9B6
:1054C000FFE7019801380190FFE7019A02990888E7
:1054D00040EA822040F400400880FFE71EE0229866
:1054E00030B9FFE70299088840F40040088014E0D2
:1054F000FFE72298400801909DF88800C00720B17E
:10550000FFE7019801300190FFE7019A02990888AE
:1055100040EA82200880FFE7FFE7FFE7FFE7FFE7B9
:1055200018E024984078012813D1FFE725980068F7
:10553000B0F850100598084405900598249909780A
:1055400000EBC10000F20640049022980499088004
:10555000FFE7FFE7FFE725980068249A5169528921
:10556000BDF888300BF032FBFFE7FFE7FFE7FFE70E
:10557000259800682499097830F8210048F6BF7111
:105580000840ADF80200BDF8020080F01000ADF850
:105590000200BDF8020080F02000ADF80200BDF866
:1055A000020048F28001084325990968249A12787C
:1055B00021F82200FFE7002026B080BD82B00190D4
:1055C0008DF8031001989DF8031001F0070101EB1D
:1055D000810100EBC100D0F86C0102B070470000FF
:1055E00080B586B004908DF80F10ADF80C208DF8C2
:1055F0000B3000208DF80A009DF80F0000060028EF
:105600000FD5FFE704989DF80F1001F0070101EB9B
:10561000810100EBC1001030019001990120487018
:105620000FE004989DF80F1001F0070101EB8101D4
:1056300000EBC10000F5A8700190019900204870AE
:10564000FFE79DF80F0000F0070001990870BDF812
:105650000C00019908619DF80B000199C8709DF834
:105660000B00022804D1FFE7019900200871FFE731
:10567000FFE7049890F89002012804D1FFE7022088
:105680008DF8170015E00499012081F89002FFE7DA
:10569000FFE704980068019909F004FDFFE7049909
:1056A000002081F89002FFE79DF80A008DF81700AE
:1056B000FFE79DF8170006B080BD000080B586B0FA
:1056C00005908DF813100392029305989DF813101E
:1056D00001F0070101EB810100EBC10000F5A870AA
:1056E0000190039801994861029801998861019994
:1056F00000200090C861019948709DF8130000F0E7
:105700000700019908700598006801990AF0DEFA0F
:10571000009806B080BD000080B584B002908DF87E
:1057200007109DF8070000F00700029909798842E8
:1057300004D9FFE701208DF80F004BE09DF807002A
:10574000000600280FD5FFE702989DF8071001F02A
:10575000070101EB810100EBC100103000900099BE
:10576000012048700DE002989DF8071001EB8101BF
:1057700000EBC10000F5A87000900099002048706F
:10578000FFE70099012088709DF8070000F00700EE
:1057900000990870FFE7029890F89002012804D160
:1057A000FFE702208DF80F0014E00299012081F834
:1057B0009002FFE7FFE70298006800990AF042FABA
:1057C000FFE70299002081F89002FFE700208DF8A2
:1057D0000F00FFE79DF80F0004B080BD80B586B0D4
:1057E00005908DF813100392029305989DF81310FD
:1057F00001F0070101EB810100EBC10010300190C5
:1058000003980199486102980199886101990120E2
:1058100081F824000299019A1162019A00210091F5
:10582000D161019948709DF8130000F007000199BB
:1058300008700598006801990AF048FA009806B0C7
:1058400080BD000080B582B00190019800680BF027
:1058500061F900909DF801000006002804D5FFE7DB
:10586000019805F04DFDDFE09DF80100400700289C
:1058700010D5FFE701980168B1F8440020F480607A
:10588000A1F84400019800F0D3F90198002100F03C
:105890000FFAC9E09DF801004006002809D5FFE78E
:1058A00001980168B1F8440020F48040A1F8440058
:1058B000BAE09DF801008006002809D5FFE70198AD
:1058C0000168B1F8440020F40050A1F84400ABE0B6
:1058D0009DF80100C00600282AD5FFE7019801685D
:1058E000B1F8400020F00400A1F8400001980168E0
:1058F000B1F8400020F00800A1F84000019890F8AD
:10590000C802012808D1FFE70198002180F8C812D9
:105910000198FFF75BF8FFE7019800F0A5F90198FF
:105920000168B1F8440020F48050A1F844007BE005
:105930009DF80100000700281CD5FFE701980168C9
:10594000B1F8400040F00800A1F84000019801685B
:10595000B1F8440020F40060A1F844000198016807
:10596000B1F8400040F00400A1F84000019800F0B8
:1059700003FA59E09DF800000006002834D5FFE73F
:1059800001980168B1F8440020F08000A1F84400BB
:10599000019890F8C80210BBFFE701980168B1F8C0
:1059A000400040F00400A1F8400001980168B1F8FF
:1059B000400040F00800A1F840000198012180F863
:1059C000C81201980068B0F8540000F0F000800898
:1059D000019AC2F8CC020198FEF7F8FF03E00198A3
:1059E00000F0CAF9FFE71FE09DF8010080070028DA
:1059F0000CD5FFE701980168B1F8440020F400706D
:105A0000A1F84400019800F049F90DE09DF801006B
:105A1000C00748B1FFE701980168B1F8440020F4DD
:105A20008070A1F84400FFE702B080BD80B584B06B
:105A30000290029820B9FFE701208DF80F00BBE02B
:105A4000029890F8910240B9FFE70299002081F88E
:105A50009002029800F0B4F8FFE70299032081F861
:105A60009102029800680AF039F800208DF80700CA
:105A7000FFE79DF8070002990979884239DAFFE7C4
:105A800002989DF8071001EB810100EBC101012094
:105A900048749DF80700029900EB800201EBC201F7
:105AA000087402989DF8071001EB810100EBC10119
:105AB0000020C87402999DF8072002EB820201EBD6
:105AC000C201086202999DF8072002EB820201EBF5
:105AD000C201486202999DF8072002EB820201EBA5
